:020000040800F2
:10000000780D002045010008770E00086F0E0008EB
:10001000730E0008CD070008511C00080000000006
:100020000000000000000000000000004110000877
:10003000210D000800000000E90E0008B9110008B9
:100040005F0100085F0100085F0100085F01000810
:100050005F0100085F0100085F0100085F01000800
:100060005F0100085F0100085F0100085F010008F0
:100070005F0100085F0100085F0100085F010008E0
:100080005F0100085F0100085F010008D91B00083C
:10009000F91B00085F0100085F0100085F0100080C
:1000A0005F010008351300085F0100085F010008C8
:1000B0005F0100085F010008691400085F01000883
:1000C0005F0100085F0100085F0100085F01000890
:1000D0005F010008A1180008111900088119000823
:1000E0005F0100085F0100085F0100085F01000870
:1000F0005F0100085F0100085F0100085F01000860
:100100005F0100085F0100085F0100085F0100084F
:100110005F0100085F0100085F0100085F0100083F
:100120005F0100085F0100085F0100085F0100082F
:10013000DFF80CD000F0AAFA00480047F93B0008AD
:10014000780D00200648804706480047FEE7FEE796
:10015000FEE7FEE7FEE7FEE7FEE7FEE7FEE7FEE777
:10016000BD110008310100082DE9F0410024061BF3
:10017000254671F1000605DA01240027D0EB0700BF
:1001800067EB0101161E73F1000605DA0027D2EBBA
:100190000702012567EB030300F057F886460E4679
:1001A00017469C46AC4204D00025D0EB050E65EB0B
:1001B000010624B10020D2EB000760EB030C70466F
:1001C00031463A466346BDE8F081F0B4CA17CB0F1A
:1001D00050405140C61841F100054FEAC372314604
:1001E00028004FF0960303D0B623F0BC00F067B8A8
:1001F00030460021F9E720F00040C10DC0F31600A1
:1002000040F400007F2901DA00207047962903DCC2
:10021000C1F19601C840704796398840704730B5A3
:100220000B46014600202022012409E021FA02F5B4
:100230009D4205D303FA02F5491B04FA02F528444E
:10024000151EA2F10102F1DC30BD2DE9F05F05467B
:10025000002092469B4688460646814640241BE085
:10026000284641464746224600F031FA53465A4650
:10027000C01A914110D311461846224600F018FAD0
:100280002D1A67EB01084F4622460120002100F09D
:100290000FFA17EB00094E41201EA4F10104DFDC28
:1002A000484631462A464346BDE8F09F0029A8BF8C
:1002B0007047401C490008BF20F00100704710B48F
:1002C000B0FA80FC00FA0CF050EA010404BF10BC44
:1002D000704749B1CCF1200421FA04F411FA0CF171
:1002E00018BF012121430843A3EB0C01CB1D4FEAAA
:1002F00000614FEA102042BF002010BC704700EBA5
:10030000C35010440029A4BF10BC7047401C4900D2
:1003100008BF20F0010010BC70472DE9FE4F804659
:1003200081EA0300C00F0C46009021F0004123F049
:100330000045B8EB0200A94105D24046214690464F
:100340001C460B46024623F00040104347D0270DC1
:10035000C7F30A00C3F30A510290401A01904028E3
:100360006BDAC3F3130040F4801B0098924620B16F
:100370000023D2EB030A63EB0B0B01985946C0F143
:100380004002504600F094F906460D465046594644
:10039000019A00F0ACF910EB08006141002487EAF3
:1003A000115284EAE7731A4340D0009A62B3019A6B
:1003B000012A4FEA075215DC001B61EB02014FF0E6
:1003C000004202EA0752CDE90042001C41F58011CB
:1003D00032462B4600F0ACF903B0BDE8F08F404642
:1003E0002146F9E7001B61EB0201001C41F5801377
:1003F00000185B412018A2F5001747EB030140EA03
:10040000D570B6196D4111E06D084FEA360645EA20
:10041000C0754FEA0752001B61EB0201001C41F559
:10042000801149084FEA30000019514132462B46ED
:1004300003B0BDE8F04F00F06CB900980122400015
:100440000023D0EB020263EBE073009821464FEAF1
:10045000E074B8EB000061EB0401E9E783F00043CE
:100460005BE781F0004158E72DE9FE4F81EA030484
:1004700004F0004421F0004100944FF0000B23F001
:10048000004350EA01045ED052EA03045BD0C3F398
:100490000A54C1F30A552C44A4F2F3340194A0FB8E
:1004A0000254C1F3130141F48011C3F3130343F465
:1004B000801301FB024400FB034E840A970A44EABE
:1004C000815447EA8357A4FB076802958D0A05FB10
:1004D00007854FEA932C04FB0C542705029D4FEA35
:1004E000065847EA1637B5EB08056EEB070C870E82
:1004F000920E47EA811742EA8312A7FB0201B6EB8C
:100500000B0164EB00042B0D43EA0C335E1844EB43
:100510001C50DA465146E7FB0201C5F313044FEACB
:100520000B3343EA14534FEA0432019C43EA0603B7
:10053000A4F10C040294009CCDE900B400F0F8F89A
:1005400003B0BDE8F08F00200146F9E72DE9F04D3A
:1005500081EA030404F0004B21F0004514464FF0FB
:10056000000A23F0004150EA050220D054EA0102BB
:100570001DD0C5F30A570246C5F31303C1F3130098
:10058000C1F30A5640F4801543F48013A7EB060824
:10059000101BD64608F2FD3873EB050002D308F1B4
:1005A000010801E092185B41B8F1000F03DA002066
:1005B0000146BDE8F08D00204FF4801106468446C8
:1005C0000EE0171B73EB050705D3121B63EB050346
:1005D00006434CEA010C49084FEA300092185B418F
:1005E00050EA0107EDD152EA030012D082EA04007A
:1005F00083EA0501084305D0101BAB4106D2012256
:10060000002306E000224FF0004302E06FF00102F9
:1006100053101AEB06004CEB085110EB0A0041EBAB
:100620000B01BDE8F04D00F074B8C1F30A52C1F3FC
:10063000130140F2FF3341F480119A4202DA0020A4
:100640000146704740F233439A42A2F2334202DC41
:10065000524200F03CB800F02BB8000030B5041E48
:1006600071F1000404DB4FF00044404264EB0101EF
:10067000141E73F1000405DB1C464FF00043524288
:1006800063EB0403994208BF904230BD064C074D0E
:1006900006E0E06840F0010394E807009847103452
:1006A000AC42F6D3FFF748FD104F0008304F00086A
:1006B000202A04DB203A00FA02F100207047914022
:1006C000C2F1200320FA03F3194390407047202A17
:1006D00004DB203A21FA02F00021704721FA02F3EC
:1006E000D040C2F120029140084319467047202AA9
:1006F00006DBCB17203A41FA02F043EAE07306E04A
:1007000041FA02F3D040C2F1200291400843194659
:10071000704710B5141E73F1000408DA401C41F153
:10072000000192185B411A4301D120F0010010BD75
:100730002DE9F04D92469B4611B1B1FA81F202E0EB
:10074000B0FA80F220329046FFF7B2FF04460F461F
:1007500040EA0A0041EA0B0153465A46084313D0C7
:10076000114653EA010019D0C8F140025046FFF784
:10077000AEFF05460E46504659464246FFF798FFE3
:10078000084305D0012004E020463946BDE8F08D3D
:100790000020054346EAE0762C4337430A98630578
:1007A000E40AA0EB08000022FD0A44EA47540A309C
:1007B00002D500200146E9E7010510196941DDE98C
:1007C000084500196941BDE8F04DA2E700BFFEE70A
:1007D000B1F5007F3AD00FDC202928D006DC0129B2
:1007E0001CD004291DD0082940D11DE0402921D06A
:1007F000B1F5807F3AD126E0B1F5004F31D006DC6B
:10080000B1F5806F25D0B1F5006F2FD124E0B1F59F
:10081000803F12D0B1F5003F28D111E0154A826027
:1008200025E00822C26022E01022C2601FE00822F8
:1008300002611CE01022026119E00822426016E009
:100840001022426013E00422426010E00422426061
:100850000DE0042242600AE000228261042242602C
:1008600005E0002282610422426000E000BF00BF78
:10087000704700000101010010B504460B48844296
:1008800009D10121480600F041FB00214FF0007022
:1008900000F03CFB08E00121880600F037FB002156
:1008A0004FF0806000F032FB10BD0000006400409B
:1008B00010B50021837A012202FA03F13D4A126841
:1008C00042F001023B4B1A603A4A1C3212688A43DA
:1008D000384B1C331A60027BCAB9364A0C32126894
:1008E0008A43344B0C331A604288C38842EA03437C
:1008F000304A4032847A42F834300288838842EAAF
:1009000003432C4A4032847A02EBC4025360027BD8
:10091000012A19D1274A0C3212680A43254B0C339D
:100920001A604288038842EA0343224A4032847AAA
:1009300042F83430C288838842EA03431D4A403279
:10094000847A02EBC4025360C27A3AB9194A121D82
:1009500012688A43174B1B1D1A6006E0154A121DC8
:1009600012680A43134B1B1D1A60028932B9114ADF
:10097000143212688A430F4B14331A600289012A19
:1009800006D10C4A143212680A430A4B14331A6017
:10099000427B012A06D1074A1C3212680A43054BE2
:1009A0001C331A60034A126822F00102014B1A60DC
:1009B00010BD00000066004070B504460D460026DC
:1009C00060692840002871D0B5F5807F5CD010DCCC
:1009D000082D35D006DC012D20D0022D24D0042D89
:1009E00072D127E0102D31D0202D35D0402D6BD184
:1009F00038E0B5F5004F60D009DCB5F5007F49D08F
:100A0000B5F5806F4CD0B5F5006F5DD14FE0B5F511
:100A1000803F2DD0B5F5003F56D12FE0A0682D497D
:100A200000F075F9064651E0E068032100F06FF927
:100A300006464BE0E068082100F069F9064645E00B
:100A4000E068102100F063F906463FE020690321C9
:100A500000F05DF9064639E02069082100F057F9F9
:100A6000064633E02069102100F051F906462DE0DA
:100A70006068082100F04BF9064627E06068102105
:100A800000F045F9064621E0A069012100F03FF998
:100A900006461BE0A069022100F039F9064615E080
:100AA000A069042100F033F906460FE00FE0A069C9
:100AB000702100F02CF9064608E06068042100F07F
:100AC00026F9064602E0FFE7002600BF00E0002608
:100AD000304670BD010101001AB143690B43436107
:100AE00002E043698B434361704730B50246002002
:100AF0000023146824F002041460146844F0010414
:100B0000146000E05B1C546804F001041CB94FF64B
:100B1000FF74A342F6D1546804F001040CB900201C
:100B20006CE08C79012C04D1146844F080041460CA
:100B300003E0146824F080041460CC79012C04D103
:100B4000146844F04004146003E0146824F0400486
:100B500014600C7A012C04D1146844F02004146051
:100B600003E0146824F0200414604C7A012C04D1B2
:100B7000146844F01004146003E0146824F01004B6
:100B800014608C7A012C04D1146844F008041460B9
:100B900003E0146824F008041460CC7A012C04D11A
:100BA000146844F00404146003E0146824F004049E
:100BB00014608C78A407CD7844EA05640D7944EA82
:100BC00005444D7944EA05540D886D1E2C43D461CB
:100BD000146824F001041460002300E05B1C5468D6
:100BE00004F001041CB14FF6FF74A342F6D154681F
:100BF00004F001040CB1002000E0012030BD10B56C
:100C000000F5D87303EB01131B6803F004031372A0
:100C1000137A53B900F5D87303EB01131B6840F244
:100C2000FF7404EA5353136009E000F5D87303EB33
:100C300001131B686FF0604404EAD303536000F5AE
:100C4000D87303EB01131B6803F00203537200F522
:100C5000D87303EB01135B6803F00F03937200F585
:100C6000D87303EB01135B681B0AD37400F5D873C8
:100C700003EB01139B68D37200F5D87303EB0113E8
:100C80009B681C0A147300F5D87303EB01139B686F
:100C90001C0C547300F5D87303EB01139B681B0EF7
:100CA000937300F5D87303EB0113DB68D37300F57E
:100CB000D87303EB0113DB681C0A147400F5D873B6
:100CC00003EB0113DB681C0C547400F5D87303EBC1
:100CD0000113DB681B0E937421B9C36843F0200332
:100CE000C36003E0036943F02003036110BD0021EA
:100CF0008171C171017241728172C1728170C17062
:100D000003210171022141710121018070470246D6
:100D1000002002EA01030BB1012000E0002070472F
:100D200070472DE9F04102460025002600200023EF
:100D30000024002791F803C00CF00F0591F803C0C0
:100D40000CF0100CBCF1000F03D091F802C04CEA7B
:100D5000050591F800C0BCF1000F31D014680020E7
:100D60002BE04FF0010C0CFA00F3B1F800C00CEAD4
:100D700003069E4220D183004FF00F0C0CFA03F7BC
:100D8000BC4305FA03FC4CEA040491F803C0BCF12F
:100D9000280F06D14FF0010C0CFA00FCC2F814C069
:100DA0000AE091F803C0BCF1480F05D14FF0010CE7
:100DB0000CFA00FCC2F810C0401C0828D1D3146003
:100DC000B1F800C0BCF1FF0F34DD546800202EE004
:100DD00000F1080C4FF0010808FA0CF3B1F800C05C
:100DE0000CEA03069E4221D183004FF00F0C0CFA4F
:100DF00003F7BC4305FA03FC4CEA040491F803C072
:100E0000BCF1280F05D100F1080C08FA0CF8C2F863
:100E1000148091F803C0BCF1480F07D100F1080C11
:100E20004FF0010808FA0CF8C2F81080401C08289E
:100E3000CED35460BDE8F0810246002093680B4099
:100E40000BB1012000E00020704702460020D3686B
:100E50000B400BB1012000E000207047416170475A
:100E6000016170470AB1016100E04161704700BF54
:100E7000FEE700BFFEE7704770B5002100230F2298
:100E8000C47804B3154C246804F4E064C4F5E06449
:100E9000210AC1F10403CA40447804FA03F18478BA
:100EA0001440214309010E4C0678A155047804F042
:100EB0001F050124AC4005786D11AD0005F1E0255A
:100EC000C5F8004109E0047804F01F050124AC4096
:100ED000044D0678761145F8264070BD0CED00E013
:100EE00000E400E080E100E07047000029B1064A1C
:100EF000D2690243044BDA6104E0034AD2698243B7
:100F0000014BDA61704700000010024029B1064A27
:100F100012690243044B1A6104E0034A12698243D6
:100F2000014B1A61704700000010024029B1064AC7
:100F300092690243044B9A6104E0034A9269824336
:100F4000014B9A61704700000010024029B1064A27
:100F5000D2680243044BDA6004E0034AD268824359
:100F6000014BDA60704700000010024030B50021EC
:100F70000022002400232D4D6D6805F00C0121B1E5
:100F8000042905D0082923D105E0294D056022E078
:100F9000274D05601FE0254D6D6805F47012234D47
:100FA0006D6805F48034022505EB92421CB9214D91
:100FB000554305600BE01D4D6D6805F400351DB10E
:100FC0001C4D5543056002E0194D5543056002E094
:100FD000174D056000BF00BF144D6D6805F0F001AE
:100FE0000909154D6B5C0568DD4045600F4D6D6866
:100FF00005F4E061090A104D6B5C4568DD408560D1
:101000000A4D6D6805F46051C90A0B4D6B5C45686B
:10101000DD40C560054D6D6805F44041890B074D05
:101020006B5CC568B5FBF3F5056130BD001002408F
:1010300000127A0000093D00FC0000200C01002095
:10104000704710B500F002F810BD00000CB500208C
:10105000019000903348006840F4803031490860C6
:1010600000BF3048006800F4003000900198401C38
:101070000190009818B90198B0F5A06FF1D12948F6
:10108000006800F4003010B10120009001E0002061
:1010900000900098012843D12348006840F01000D8
:1010A000214908600846006820F0030008600846EF
:1010B000006840F0020008601A484068194948601A
:1010C0000846406848600846406840F480604860D0
:1010D0000846406820F47C1048600846406840F4A8
:1010E000E81048600846006840F08070086000BF63
:1010F0000C48006800F000700028F9D009484068EA
:1011000020F00300074948600846406840F00200AC
:10111000486000BF0348406800F00C000828F9D17F
:101120000CBD000000100240002002402DE9F84FE5
:1011300004460D4600210846611A75EB000004DAEA
:101140000021604261EB050101E02046294604468A
:101150000D4620462946FFF738F8009015490098BB
:1011600001EB500000900098FFF745F800902046F2
:101170004FF480430022A0FB036B05FB03B104FB8B
:101180000211DDF800C0624600233046FEF7ECFF96
:10119000009A861841F1000016F1010840F10001A3
:1011A000022200234046FEF7DFFF00900098C000B7
:1011B000BDE8F88F00403B237047000010B513488E
:1011C000006840F001001149086008464068104975
:1011D00008400E494860084600680E4908400B491F
:1011E00008600846006820F48020086008464068CF
:1011F00020F4FE0048604FF41F008860FFF721FFD5
:101200004FF000600449086010BD0000001002406B
:101210000000FFF8FFFFF6FE08ED00E0F0B50C4619
:10122000154600220021068C4FF6FE773E400684CC
:10123000028B018C4FF60C7632407E1C06EA0316B8
:101240002E433243104EB0420ED0104EB0420BD05F
:10125000B0F1804F08D00E4EB04205D00D4EB042D6
:1012600002D00D4EB04206D14FF6FD76314044F02B
:101270000106314305E04FF6F576314044F00106B2
:10128000314302830184F0BD002C01400034014051
:101290000004004000080040000C0040F0B50C467F
:1012A0001546002200210026078C4FF6EF7C07EA46
:1012B0000C070784028B018C4FF6FF7707EA0416B0
:1012C00040F6FF473A404FF6FF7707EA03373A43C5
:1012D0004FF6FF7707EA05273A43114FB8420ED081
:1012E000104FB8420BD0B0F1804F08D00E4FB8422B
:1012F00005D00E4FB84202D00D4FB84206D14FF67E
:10130000DF77394046F01007394305E04FF65F7745
:10131000394044F01007394302830184F0BD0000D6
:10132000002C01400034014000040040000800404F
:10133000000C004070B50121424800F0E7F9002898
:101340007FD001213F4800F0ABF83F48007802F021
:10135000F7FB01F07BFE3C480078012871D10024A6
:1013600002F03AFB002860D101F058FE00285CD062
:1013700036480078401C00F07F003449086003F0D4
:101380008BF903F00FF93248007800283AD0314841
:10139000006841F63F7180FB015001462E4802680B
:1013A000D3172846FEF7E0FE04462C48006800F5F7
:1013B0000070844204DD2948006800F500740AE0EA
:1013C00026480068A0F50070A04204DD23480068AC
:1013D0004042A0F500743CB92148007810B94FF0A4
:1013E000FF340CE001240AE0002C03DD00201C493E
:1013F000087004E0002C02DA01201949087017482F
:1014000004601AE0002013490860104800680828AA
:1014100002D140F2E73410E00C480068042802D101
:10142000104C0AE00DE0002407E0002007490860A6
:1014300002F0BCFD03F05EFC0446204603F068FAAF
:1014400000BF70BD002C01408C000020A4000020D3
:101450008D0000208400002080000020AC000020CF
:10146000A800002019FCFFFF10B505480068401CCB
:10147000034908600121034800F012F810BD000084
:10148000140000200008004021B1028842F08002D0
:10149000028004E002884FF67F731A400280704792
:1014A000CA430282704721B1028842F001020280E1
:1014B00004E002884FF6FE731A400280704731B193
:1014C000B0F8442042F40042A0F8442005E0B0F80F
:1014D0004420C2F30E02A0F84420704710B5044621
:1014E0006848844208D10121C014FFF72FFD002174
:1014F000E014FFF72BFDC4E0B4F1804F08D10121C7
:101500000846FFF703FD00210120FFF7FFFCB8E0CC
:101510005D48844208D101210220FFF7F7FC002139
:101520000220FFF7F3FCACE05848844208D10121C7
:101530000420FFF7EBFC00210420FFF7E7FCA0E00C
:101540005348844208D101210820FFF7DFFC002125
:101550000820FFF7DBFC94E04E48844208D10121CB
:101560001020FFF7D3FC00211020FFF7CFFC88E00C
:101570004948844208D101212020FFF7C7FC0021FF
:101580002020FFF7C3FC7CE04448844208D10121BD
:101590004014FFF7DBFC00216014FFF7D7FC70E07C
:1015A0003F48844209D10121C804FFF7CFFC002144
:1015B0004FF40020FFF7CAFC63E03A48844209D1A7
:1015C00001210805FFF7C2FC00214FF48010FFF74E
:1015D000BDFC56E03448844209D101214805FFF79B
:1015E000B5FC00214FF40010FFF7B0FC49E02F4894
:1015F000844208D101214020FFF788FC00214020CF
:10160000FFF784FC3DE02A48844208D10121802074
:10161000FFF77CFC00218020FFF778FC31E02548B3
:10162000844208D101218015FFF770FC0021A0152C
:10163000FFF76CFC25E02048844209D10121080411
:10164000FFF784FC00214FF48030FFF77FFC18E0A7
:101650001A48844209D101214804FFF777FC002190
:101660004FF40030FFF772FC0BE01548844208D1BC
:1016700001218804FFF76AFC00214FF48020FFF766
:1016800065FC10BD002C0140000400400008004033
:10169000000C0040001000400014004000340140E5
:1016A000004C01400050014000540140001800402F
:1016B000001C004000200040004001400044014068
:1016C00000480140F0B50C4615461E460021002298
:1016D00000230189028B038C4FF6F87739402143B0
:1016E0004FF6FC473A4040F201173A434FF6DD7798
:1016F0003B404FF6FF7707EA06172F433B43018134
:1017000002830384F0BD0146888C704730B50246E1
:10171000002000230024158A05EA0103958905EAC3
:10172000010413B10CB1012000E0002030BD1AB15A
:1017300083890B43838102E083898B4383817047D4
:1017400070B5002400220023058C4FF6FF6635405B
:101750000584028C8388848B4FF68F752C404FF65E
:10176000FC752C400D882C434FF6FF552A400D89FF
:101770004FF6FF7606EA05252A434D8806EA052539
:101780002A43154DA84202D0144DA8421DD14FF254
:10179000FF752A404D894FF6FF7606EA05252A4354
:1017A0004FF6FF352A408D8806EA05252A434EF676
:1017B000FF752B404DF6FF752B408D8906EA051508
:1017C0002B43CD8906EA05152B4383808483CD887E
:1017D0008587028470BD0000002C01400034014068
:1017E0000A460021818B4FF6F7731940114381831C
:1017F000704781877047818470470000002202880B
:101800001D4B98420ED01D4B98420BD0B0F1804F2B
:1018100008D01B4B984205D01A4B984202D01A4B65
:10182000984204D14FF68F731A404B881A43174BD6
:10183000984207D0164B984204D04FF6FF431A4007
:10184000CB881A4302808B8883850B8803850A4BDB
:1018500098420BD0094B984208D00E4B984205D0C5
:101860000D4B984202D00D4B984201D10B7A038662
:101870000123838270470000002C014000340140A6
:101880000004004000080040000C00400010004030
:101890000014004000400140004401400048014065
:1018A00010B51949086840F2255100F0C9F801281F
:1018B00012D11648006840B11349086800F087F952
:1018C000C4B212480168204688470F49086840F2B0
:1018D000255100F08DF810E00B49086840F22661B0
:1018E00000F0AEF8012808D1002003F0A5F9064960
:1018F000086840F2266100F07BF803480068008821
:1019000001480068808810BD34000020AC08002029
:1019100010B51949486840F2255100F091F80128A6
:1019200012D11648406840B11349486800F04FF999
:10193000C4B212484168204688470F49486840F2BF
:10194000255100F055F80FE00B49486840F2266138
:1019500000F076F8012807D103F06EF906494868CF
:1019600040F2266100F044F80348406800880248CD
:101970004068808810BD000034000020AC080020C2
:1019800010B51949886840F2255100F059F801282E
:1019900012D11648806840B11349886800F017F9E1
:1019A000C4B212488168204688470F49886840F2CF
:1019B000255100F01DF810E00B49886840F22661BF
:1019C00000F03EF8012808D1022003F035F906495D
:1019D000886840F2266100F00BF8034880680088B0
:1019E00001488068808810BD34000020AC080020C9
:1019F00010B50022002340F66A14A14200D100BFB6
:101A00000A1201249440A3B2DC43048010BD21B12A
:101A1000828942F40052828104E082894DF6FF738C
:101A20001A408281704702460020B1F5007F00D144
:101A300000BF13880B400BB1012000E0002070476D
:101A400070B50246002400230025002040F66A16E7
:101A5000B14200D100BFC1F3421501F01F030126BE
:101A600006FA03F3012D02D19689334006E0022DD8
:101A700002D1168A334001E0968A33400C120126C7
:101A800006FA04F41688344013B10CB1012000E0CA
:101A9000002070BDF0B5034600240026002500207C
:101AA00040F66A17B94200D100BF1846C1F342148C
:101AB00001F01F06012707FA06F5012C01D10C30B1
:101AC00004E0022C01D1103000E014301AB1076894
:101AD0002F43076002E00768AF430760F0BD0000D6
:101AE0002DE9F04786B005460E460024A24600BF09
:101AF000A1460027B08900B100BF2F462C8A4CF6C2
:101B0000FF700440F08804432C82AC894EF6F31039
:101B10000440B08831890843718908430443AC818B
:101B2000AC8A4FF6FF400440B0890443AC8201A860
:101B3000FFF71CFA1F48874202D1DDF810A001E030
:101B4000DDF80CA0A88900F4004040B10AEBCA00FF
:101B500000EB0A1031684900B0FBF1F807E00AEB2E
:101B6000CA0000EB0A1031688900B0FBF1F864206C
:101B7000B8FBF0F004012009642101FB1089A88959
:101B800000F4004040B1322000EBC900B0FBF1F09E
:101B900000F00700044308E0322000EB0910642144
:101BA000B0FBF1F000F00F0004432C8106B0BDE85B
:101BB000F08700000038014021B1828942F40042E0
:101BC000828103E08289C2F30E028281704701465E
:101BD0008888C0F30800704710B501210548FEF75A
:101BE000EBFE28B101210348FEF7F2FD01F01EF8DB
:101BF00010BD00000064004010B586B002211148FD
:101C0000FEF7DAFEE0B102210E48FEF7E1FD01AA7F
:101C100000210C48FEF7F3FF9DF80C0078B99DF801
:101C20001740094850F8240040B108480078844221
:101C300004DA054850F8241001A8884700BF00BF07
:101C400006B010BD0064004068030020240000209E
:101C500000BFFEE737B514460846064B6A462146E4
:101C600000F0CCF804466946002000F05EFC2046F7
:101C70003EBD00002B25000802E008C8121F08C165
:101C8000002AFAD170477047002001E001C1121FFD
:101C9000002AFBD1704700002DE9FF5FDDE902203B
:101CA000010DDDF838B0024318D044F61050A1F20F
:101CB000FF3141430D140F98012820D0A5EB0B00F4
:101CC000401C5FEA000A4FF00004474EDFF81C9109
:101CD000A046504616D5CAF1000728E00F98012407
:101CE00043A2012808D0002100980F9BC0E90021E1
:101CF000C0E90243BDE8FF9F6FEA0B01F4E7CBF1B7
:101D00000000DEE7074612E0F80707D02246334618
:101D100040464946FEF7A8FB8046894622463346A0
:101D200010461946FEF7A0FB04460E467F10002F12
:101D3000EAD1DDE90201BAF1000F42464B4602DA70
:101D4000FEF792FB01E0FEF701FC04460E4600227E
:101D5000284BFEF783FC03D84FF0FF30014607E025
:101D60000022254B20463146FEF7D7FAFEF75DFCF0
:101D7000102409E0002C0ADB0A220023FEF765FA92
:101D8000019B30321A55641E50EA0102F2D1641CE4
:101D9000019AC4F1110314440F9A012A03D00122BD
:101DA00008430DD10AE0084304D000204FF0110B86
:101DB0000F9080E7A3EB0B056D1E0DE05B4504DD86
:101DC0004FF0000205F1010504E003DA4FF00002D4
:101DD000A5F10105002AECD000980F99C0E9023165
:101DE000C0E9004586E70000000024400000F03F05
:101DF000300000000000F0430000E03F2DE9FF4FFD
:101E000095B09B468946064600250FE2252877D1E6
:101E100000242746F84A0121059400E0044316F8FF
:101E2000013F203B01FA03F01042F7D130782A2815
:101E300011D06FF02F033078A0F13002092A16D8A4
:101E4000059A44F0020402EB820203EB42021044C2
:101E5000761C0590EFE759F8042B0592002A03DA67
:101E6000504244F40054059044F00204761C30784B
:101E70002E2816D116F8010F44F004042A280DD09C
:101E80006FF02F023078A0F13003092B09D807EB4F
:101E9000870302EB4303C718761CF3E759F8047B6A
:101EA000761C30786C280FD006DC4C2817D06828B8
:101EB0000DD06A2814D104E0742810D07A280FD1EC
:101EC0000DE044F400140AE044F4801401E044F40A
:101ED00040147278824202D104F58014761C761C7C
:101EE000307866280BD013DC582877D009DC00281E
:101EF00075D04528F6D04628F4D047281AD19DE160
:101F000018E0632835D0642879D0652812D195E18E
:101F1000702873D008DC6728F1D069286FD06E284C
:101F20000DD06F2806D1B5E073282CD0752875D058
:101F3000782874D05A46179990476D1C75E1C4F300
:101F40000250022809D003280DD0D9F80010042827
:101F50000DD00D6009F1040967E1D9F80010EA1706
:101F6000C1E90052F6E7D9F800100D80F2E70D70D4
:101F7000F0E719F8041B8DF8001000208DF801001F
:101F8000EA46012003E059F804AB4FF0FF30610747
:101F90004FF0000102D40DE008F101018846B9427A
:101FA0000FDA8045F8DB1AF808100029F4D108E0B0
:101FB00008F1010188468142FADB1AF8081000296D
:101FC000F6D105985B46A0EB080721463846179ADC
:101FD00000F094FA284400EB080507E04DE029E101
:101FE0000DE01AF8010B5A4617999047B8F101080D
:101FF000F7D25B4621463846179A13E142E00A229F
:102000000092C4F302524FF0000A022A08D059F895
:1020100004CB032A4FEAEC710AD00DE029E02AE054
:1020200009F1070121F00702F2E802C1914609E037
:102030000FFA8CFC4FEAEC71042A03D14FFA8CFCA6
:102040004FEAEC71002907DA0A460021DCF1000CA6
:1020500061EB02012D2202E0220504D52B228DF82E
:102060000420012203E0E20701D02022F7E7904696
:1020700059E00A2102E010220DE010214FF0000A81
:1020800000910BE010224FF0000A44F004040827EE
:10209000009203E008224FF0000A0092C4F30252BB
:1020A000022A05D059F804CB0021032A08D009E000
:1020B00009F1070121F00702F2E802C1914605E0AB
:1020C0001FFA8CFC042A01D10CF0FF0C4FF0000821
:1020D000220728D5702806D0009B83F0100353EA0E
:1020E0000A0305D00EE040228DF80420012208E00A
:1020F0005CEA010206D030228DF804208DF805003C
:1021000002229046009B83F0080353EA0A030AD197
:102110005CEA010201D1620705D530228DF8042066
:102120004FF001087F1E582804D034A003900EA859
:1021300002900DE036A0F9E753466046009AFEF79C
:1021400084F884460398825C0298401E02900270D4
:102150005CEA0100F0D1029806A9081A00F1200AF1
:10216000600702D524F4803400E00127574502DDE2
:10217000A7EB0A0000E0002000EB0A0100900598A0
:102180004144401A0590E00306D45B462146179A65
:10219000059800F0B3F90544002706E001A85A4667
:1021A000C05D179990476D1C7F1C4745F6DBE00327
:1021B0000CD55B462146179A059800F09FF9054417
:1021C00004E030205A46179990476D1C0099481E2C
:1021D00000900029F5DC08E0029802995A46007840
:1021E000491C0291179990476D1CBAF10001AAF1A0
:1021F000010AF1DC65E100000928010030313233C9
:102200003435363738396162636465660000000032
:10221000303132333435363738394142434445461C
:102220000000000000F058F90544761C30780028C2
:102230007FF4ECAD19B02846BDE8F08F620700D4FA
:10224000062709F1070222F0070CFCE80223E14609
:1022500003F000485FEA080C02D00FF2702C0DE08A
:102260005FEA045C02D50FF2682C07E05FEAC47CE9
:1022700002D00FF2602C01E0AFF2700C4FF0FF388B
:1022800023F00043CDF850C065280CD006DC45286B
:1022900009D046281DD047283DD13DE0662818D0FA
:1022A00067287ED138E00021112F01DB112000E0EA
:1022B000781CCDE9000106A90EA8FFF7EDFCDDE9C9
:1022C0000F010E9A03910021009207F1010A049177
:1022D0004DE04FF000400097CDE9011006A90EA88F
:1022E000FFF7DAFCDDE90F0203920E9B1199002241
:1022F000DDF80CA00093049211B9791C00EB010ADF
:10230000B7EB0A0004D4C0F1FF3007F1010A0490D2
:10231000AAEB0700019044E0012F00DA0127002119
:10232000112F01DD112000E03846CDE9000106A99A
:102330000EA8FFF7B1FCDDE90F010E9A0391002111
:1023400004910092BA4621070CD40399514500DA52
:102350008A46BAF1010F05DD009AAAF10101515C2C
:10236000302908D0B84202DA10F1040F06DA012150
:10237000CDE9011015E0AAF10101E9E7002805DC2B
:10238000049901440491AAEB000102E0411C51456B
:1023900000DD8A460499401A401C01904FF000402D
:1023A0000290200704D40198504501DBCDF8048049
:1023B00000208DF84F0002980DF14F07B0F1004F4B
:1023C00025D02B200E9002984FF0020800280CDA3E
:1023D000404202902D200E9007E00A210298FDF75E
:1023E0001EFF3031029007F8011DB8F10001A8F17D
:1023F0000108F2DC02980028EFD1791E0E980870CF
:10240000307800F0200040F0450007F8020D12A8D7
:10241000C01B00F107081498007800B1012000EB00
:102420000A01019801EBE07105984144401A401EF1
:102430000590E00306D45B462146179A059800F004
:102440005DF805441498007818B15A4617999047DA
:102450006D1CE00324D55B462146179A059800F0D1
:102460004DF805441CE00498002807DBDDE9030172
:10247000884203DD0098405C179901E017993020ED
:102480005A469047049805F10105401C04900198B4
:10249000401E019004D12E205A46179990476D1C7A
:1024A000BAF10001AAF1010ADDDC05E017F8010B21
:1024B0005A46179990476D1CB8F10001A8F1010820
:1024C000F4DC5B462146179A0598ABE62D00000028
:1024D0002B000000200000002DE9F04104460025FB
:1024E0001E461746880404D405E039462020B0472C
:1024F0006D1C641EF9D52846BDE8F0812DE9F04138
:10250000044600251E469046C80301D5302700E04A
:102510002027880404D505E041463846B0476D1CA5
:10252000641EF9D52846BDE8F0810A68531C0B608B
:102530001070704710B504460D2C02D100F022F83F
:102540000DE0074807490978445406480078401CC4
:10255000322190FBF1F201FB12000249087010BD1C
:1025600040090020EC00002010B50449002002F0D2
:102570003FFB00200249087010BD0000352500080F
:10258000EC00002070B586B0C7480078022870DBE8
:1025900002220021C5A001F0C1FB002869D0C24879
:1025A0000078022804D1C2A1002002F027FB76E1C6
:1025B00001220221BFA001F0B1FB00287ED004223D
:1025C0000321BDA001F0AAFB30B102F079FAB8A155
:1025D000002002F013FB62E104220321B8A001F005
:1025E0009DFB30B102F066FAB1A1002002F006FBBB
:1025F00055E106220321B4A001F090FB28B1B448B4
:102600000168002002F0FAFA49E108220321B1A092
:1026100001F084FB002832D0B148C07A3F280BD1AA
:10262000A14800780C2807D1AE480278521CAEA110
:10263000002002F0E3FA32E1A948C07A3D2819D11E
:10264000994801780C2002F0ABF80446A9480078BC
:1026500050B9002C08DB0F2C06DCA2490C7094A1A9
:10266000002002F0CBFA03E0A3A1002002F0C6FA9A
:1026700015E110E1A0A1002002F0C0FA0FE10D2247
:1026800003219FA001F04AFB30B14FF40072A0A1DA
:10269000002002F0B3FA02E10A2203219DA001F01A
:1026A0003DFBC0B101F038F9044601F08FF9054651
:1026B00001F086F906469A48006800E0E6E099498C
:1026C00009682B463246CDE90041029096A10020D0
:1026D00002F094FAE3E0042203219DA001F01EFB26
:1026E000A8B171480178072002F05AF804468148E1
:1026F000007838B9204602F0DBF86DA1002002F026
:102700007DFA03E07CA1002002F078FAC7E00822FD
:10271000032191A001F002FBA8B1634801780B20CE
:1027200002F03EF804467348007838B9204602F0BB
:10273000C9F85FA1002002F061FA03E06EA1002059
:1027400002F05CFAABE00922032186A001F0E6FA70
:1027500028B3554801780C2002F022F80546654858
:102760000078B8B9284602F031F9044694F84000E0
:10277000D4E90D23E16BCDE90223CDE90410D4E9BE
:102780000A01CDE900017AA10020636AE26802F043
:1027900035FA03E058A1002002F030FA7FE0092268
:1027A000032182A001F0BAFA28B33F4801780C2037
:1027B00001F0F6FF05464F480078B8B9284602F008
:1027C00029F8044694F84000D4E90D23E16BCDE9E3
:1027D0000223CDE90410D4E90A01CDE9000164A186
:1027E0000020636AE26802F009FA03E042A10020D7
:1027F00002F004FA53E0042203216FA001F08EFAE4
:10280000D8B129480178072001F0CAFF04463948A9
:10281000007868B914F5FA5F0ADDB4F5FA5F07DAF3
:10282000204602F059F822A1002002F0E7F903E067
:1028300031A1002002F0E2F931E00522032160A07D
:1028400001F06CFA30B100F03BFC19A1002002F05D
:10285000D5F924E0062203215BA001F05FFA80B1E4
:10286000012001F05FF80446002001F05BF8054606
:1028700000202B46024656A1CDE9000402F0BEF925
:102880000DE01DA1002002F0B9F908E01AA1002016
:1028900002F0B4F903E018A1002002F0AFF9002023
:1028A0000149087006B070BDEC00002041540000E2
:1028B0004F4B0D002B000000534855540000000002
:1028C0004C495645000000004255494C443F000029
:1028D000E80000204D4F544F525F49440000000073
:1028E000400900202C0000204D4F544F525F2564BA
:1028F0000D000000ED0000204552524F520D000027
:10290000434F4E54524F4C5F465245513F000000DA
:1029100025640D004C4953545F56414C5545000009
:10292000800000207C000020504F533A25640D5653
:10293000454C3A25640D50574D3A25640D414343AB
:102940003A25640D4D41582056454C3A25640D00FA
:102950004143433D000000004D41585F56454C3D0A
:1029600000000000504154485F504F533D000000AC
:1029700056543A25640D54313A25640D54323A25A3
:10298000640D54333A25640D54312050543A256473
:102990000D54322050543A25640D54332050543A8B
:1029A00025640D4449523A25640D000050415448B5
:1029B0005F56454C3D00000050574D3D0000000063
:1029C00044454255470000004C494D49543F0000E2
:1029D0004C4F204143543A25642053544154453AC6
:1029E00025640D4849204143543A256420535441FD
:1029F00054453A25640D0000FEB50646244800788B
:102A0000E030ADF8000008208DF8020022208DF89B
:102A100003002EB19DF8030040F001008DF8030083
:102A2000002000F07FFF28B19DF8030040F0040073
:102A30008DF80300012000F075FF28B19DF8030018
:102A400040F008008DF8030012480468E1B28DF8E8
:102A50000410210A8DF80510210C8DF80610210EA6
:102A60008DF8071000F058FF0546E9B28DF8081000
:102A7000290A8DF80910802000EA2560C5F3064177
:102A800008438DF80A009DE8070000F07BF9FEBDC1
:102A90002C000020CC00002000B585B001210846A4
:102AA000FEF744FA01210420FEF740FA012148060E
:102AB000FEF71CFA01210420FEF738FA4FF40060FB
:102AC000ADF8100048208DF8130003208DF8120097
:102AD00004A92548FEF725F94FF48050ADF8100001
:102AE00018208DF8130003208DF8120004A91E4849
:102AF000FEF717F91D48FDF7BFFE01A8FEF7F7F82E
:102B000000208DF80A0001208DF80B0000208DF8C0
:102B10000C008DF80D008DF80E008DF80F008DF86B
:102B200006008DF8070003208DF8080000208DF8BE
:102B300009000620ADF8040001A90C48FDF7D5FFF7
:102B4000012211460948FDF7C7FF13208DF8000048
:102B500001208DF801008DF802008DF80300684611
:102B6000FEF78AF905B000BD00080140006400408E
:102B700010B50549097801F1D000044A40F2FF710F
:102B800000F006F810BD00002C0000205D3D00089C
:102B90007FB505460C4616461F2040EA441084B215
:102BA000144800788DF80A0000208DF80B000120F1
:102BB0008DF80C004FF6FF7000EA4510ADF80000EC
:102BC0000020ADF80200ADF80440ADF80600ADF805
:102BD000080001208DF80D006846FDF769FE0648E3
:102BE0000449097840F8216002480078401C0149F6
:102BF00008707FBD240000206803002008B5012272
:102C000002210948FDF768FF14208DF8000000201C
:102C10008DF8010004208DF8020001208DF80300DA
:102C20006846FEF729F908BD0064004000B500F0D1
:102C300063FE00287ED05048006800F08060B0F14C
:102C4000806F77D14D48006800F001004B49086063
:102C50004B4840684A49098801EB410130F821009E
:102C6000002141EA4050454909680843434908604A
:102C7000081D006820F00F014048001D0160404819
:102C800040683F49098801EB410100EB81008078F1
:102C90003A49091D096808433849091D0860384840
:102CA00040683749098801EB410100EB81008079D8
:102CB000010633484068324A128802EB420200EBB8
:102CC0008200407941EA00412D4840682C4A128830
:102CD00002EB420200EB8200007941EA0020284921
:102CE0004968274A128802EB420201EB8201C97847
:102CF0000843224908310860214840682049098872
:102D000001EB410100EB8100807A01061C4840681C
:102D10001B4A128802EB420200EB8200407A41EA31
:102D2000004117484068164A128802EB420200EB45
:102D3000820000E01FE0007A41EA00201049496863
:102D40000F4A128802EB420201EB8201C979084363
:102D50000A490C3108600948006840F00100074941
:102D6000086007480088401C322190FBF1F201FB0B
:102D700012000349088000BD0864004080650040DF
:102D80001C00002007B500F0B7FD312801D100205C
:102D90000EBD0E4840680D49498801EB410100EB2A
:102DA00081000099016001994160029981600748A2
:102DB0004088401C322190FBF1F201FB12000349D4
:102DC0004880FFF733FF0120E2E700001C000020ED
:102DD00008B501210420FEF7A9F848208DF803006A
:102DE0004FF40050ADF8000003208DF80200694652
:102DF0000148FDF796FF08BD000801401FB500F02F
:102E0000B9F80121C802FEF791F86320ADF8080077
:102E10000020ADF80A0040F27D50ADF8040000201B
:102E2000ADF806008DF80C0001A91148FEF7E6FC8C
:102E300000208DF801008DF8020001208DF80300BC
:102E400019208DF800006846FEF716F801210848A1
:102E5000FEF726FB012211460548FEF768FC01211A
:102E60000348FEF72CFB01210148FEF71CFB1FBDA8
:102E7000002C014010B501202A4908702A4800683A
:102E800050B92A4801F01EFD0121032000F0F0FD99
:102E9000002001F021FD3FE023480068202807D1F1
:102EA0000021012000F0E4FD204801F0B3FC33E0F4
:102EB0001D4800687E2807D10021022000F0D8FDBF
:102EC000002001F0A7FC27E017480068DC2807D1A4
:102ED0000121084600F0CCFD002001F077FD1BE049
:102EE00011480068DC2817D900F07CFDA0B900F07B
:102EF00067FD002803DA00F063FD404201E000F0C6
:102F00005FFD0A2808DA00F061FD28B900200549B4
:102F10000870074801F0D6FC03480068401C0249CD
:102F2000086010BDE0000020E4000020F82401004B
:102F3000F049020070B50124002512E04FF4005161
:102F40000A48FDF779FF08B9012000E0002004409D
:102F5000002002E000BF411C88B21428FADB681C84
:102F600085B2142DEADB0248047070BD00080140F0
:102F7000E00000201FB501210420FDF7D7FF03204A
:102F8000ADF80C0004208DF80F0003208DF80E0022
:102F900003A91E48FDF7C5FE01210846FDF7A6FF5F
:102FA0000020ADF800004FF6FF70ADF804000020DF
:102FB000ADF80600ADF8020069464FF08040FEF71C
:102FC0001DFC00231A4603214FF08040FEF77AFBD8
:102FD0000423012200219007FEF720F90423012297
:102FE00000219007FEF75AF90020094908600949B5
:102FF00008600949086000214FF08040FEF7FBFBA4
:1030000001218807FEF74FFA1FBD000000080140AC
:10301000D4000020D0000020CC0000200948006827
:1030200038B909480068332801D9012070470020C9
:10303000FCE705480068802801D90120F6E7002058
:10304000F4E70000CC000020D800002010B54FF0BD
:103050008040FEF758FB04B200214FF08040FEF79D
:10306000CAFB13480068201A12490860104804601F
:10307000114800682044104908600D48006898B95C
:1030800000F04AFC002803DA00F046FC404201E070
:1030900000F042FC41F63F71884208D107480068C1
:1030A000401C0649086002E000200449086010BD89
:1030B000D0000020D4000020CC000020D800002048
:1030C0000020034908600120024908707047000091
:1030D000E4000020E00000202DE9FF4F85B0064607
:1030E00089469346129D5F48007808B9012000E0A8
:1030F0000020044600205C490870B54202DDDDF87E
:103100004C8002E01398C0F10008A91B4FF4007036
:1031100081FB001042464FEAE873CDE902100846F1
:103120000399FDF721F80746E817AA1940EBE67066
:103130004FF00003A2FB071C00FB07C002FB0300CB
:103140004FF40072CDE9001008460199FDF70CF824
:1031500002220023CDE90201FDF706F810EB090A6F
:1031600072B604EB0410414901EB8000466104EBA8
:10317000041001EB8000C0F8189004EB041001EB80
:103180008000C0F81CB004EB0411384A02EB810146
:103190000898086204EB0410114641F8208004EB03
:1031A000041001EB8000C0F80880002D07DD00202E
:1031B00004EB041102EB810181F8400012E0002DC4
:1031C00008DA012004EB0411284A02EB810181F89E
:1031D000400007E0022004EB0411244A02EB8101C5
:1031E00081F8400004EB0410204901EB80004762A5
:1031F00004EB041001EB8000876204EB041001EB88
:103200008000C76204EB041001EB8000C56004EB92
:10321000041001EB8000056104EB041001EB800059
:10322000C0F838A004EB041001EB8000C0F834A013
:1032300004EB041001EB8000C0F83CA0002004EB7C
:1032400004110A4A02EB810108630648047062B661
:103250000448007800EB0010044901EB800009B03D
:10326000BDE8F08FC9000020B8000020B808002099
:103270002DE9FC4104460D46114ECDE90045367856
:1032800006EB06160F4F07EB8606336A0C4E3678B0
:1032900006EB061607EB8606F269094E367806EB52
:1032A000061607EB8606B169054E367806EB06165C
:1032B00007EB86067069FFF70FFFBDE8FC81000091
:1032C000C8000020B8080020FEB504460D4616468A
:1032D000114F8DE870003F7807EB0717DFF83CC00F
:1032E0000CEB87073B6A0C4F3F7807EB07170CEB9B
:1032F0008707FA69084F3F7807EB07170CEB87073A
:10330000B969054F3F7807EB07170CEB870778691A
:1033100000F006F8FEBD0000C8000020B80800203C
:103320002DE9FF4F99B08046289F2798002802DAA0
:103330002798404200E027982790002F01DA784232
:1033400000E0384607461A992698461A08FB08F006
:10335000C117CDE91601780015904FF00009002043
:103360001490139012900025119010900F90B8F1C6
:10337000000F01DA401E00E00120002E02DA4FF0BB
:10338000FF3100E0012188427DD11598002E01DA3D
:10339000714200E0314680FB0131DDE916209A1AC6
:1033A000814170DA0120F94A1070F94A26981060BC
:1033B000F84A27981060F8480760F848007808B97C
:1033C000012000E00020014672B6002001EB01124E
:1033D000F34B03EB8202506201EB011203EB82021A
:1033E0009062B8F1000F02DAC8F1000000E0404638
:1033F00090FBF7F001EB0112E94B03EB8202D06284
:10340000002E0CDD01EB01101A4642F8207000205E
:1034100001EB011203EB820282F840001CE0002E57
:103420000DDA784201EB0112DD4B43F82200012056
:1034300001EB011203EB820282F840000CE001EB89
:103440000110D74A42F82070022001EB0112D44B40
:1034500003EB820282F8400001EB0110D04A52F8DF
:10346000200001EB0112CE4B03EB8202906001EBD6
:10347000011203EB82021A98906301EB011203EB35
:103480008202506300E030E001EB01101A4602EBCB
:103490008000C06A00FB08F0420A1A9800EB520054
:1034A00001EB011203EB8202D063002001EB011259
:1034B00003EB8202106301EB01101A4602EB80005D
:1034C000C0F80C80002001EB011203EB82021061B6
:1034D000B248017062B6B148007800EB0010B04A03
:1034E00002EB80001DB0BDE8F08F1598002E01DAC8
:1034F000714200E0314680FB01A0DDE9161C1AEBA9
:10350000010240EB0C011046FDF710FE4FF4B561CF
:10351000B0FBF1F00E9027990E98814264DB002EEB
:1035200002DA4FF0FF3100E001210E9A01FB02F5B3
:10353000A5EB0801490291FBF7F1149114990029B8
:1035400002DA1499494200E0149913911491149AE3
:1035500002FB07F1CA1701EBD25208EB6222002EE0
:1035600002DA4FF0FF3300E0012302FB03F505EB25
:103570000803DDF850C003FB0CF1CB1701EBD3536C
:103580005A1202EBD273581005FB05F25242331A5D
:1035900092FBF3F101EBD1724FEA6209002E02DADD
:1035A0004FF0FF3100E0012179431191B9F1000F93
:1035B00002DAC9F1000200E04A46002D01DA694250
:1035C00000E0294602EB4121491EB9F1000F02DA61
:1035D000C9F1000200E04A4691FBF2F2139911444E
:1035E00012910F901090EFE0002E02DA4FF0FF30B2
:1035F00000E00120279900FB01F5B5EB080002D59A
:10360000A8EB050001E0A5EB08000D900D9807EB75
:103610004020401E90FBF7F2002D02DA4FF0FF3001
:1036200000E001200D994843400290FBF2F0119018
:103630001198002802DA1198404200E011984000E9
:1036400015900D98400290FBF7F0149005EB0801DF
:10365000149880FB010102220023CDE90401FCF74C
:1036600083FDCDE90A0185FB05014FF400734FF09E
:10367000000CA0FB032E01FB03E100FB0C10CDE9C5
:1036800002203A46FB17DDE90201FCF76DFD02223C
:103690000023CDE90401FCF767FD002D02DA4FF0AD
:1036A000FF3200E00122D3178446ACFB020E01FB7F
:1036B00002E10CFB0311CDE908014FF4007086FB19
:1036C0000032DDE90A105B1A62EB0002DDE9080155
:1036D000B3EB000A62EB010B2A46EB175046594642
:1036E000FCF742FD07900798002802DA079840424D
:1036F00000E007980790079800FB05FA4FEAEA7B7D
:103700007202D017DDE90A13521A60EB0301B2EB23
:103710000A0061EB0B01CDE908014FF400720023B0
:10372000DDE90801FCF720FDCDE9020105FB05F00C
:103730004042C117CDE90001DDE90223FCF714FD89
:1037400002220023CDE90401FCF70EFD81464FF46F
:1037500000720023DDE90A01FCF706FD1A99401802
:1037600010904FF400724FF0000350465946FCF79A
:10377000FBFC109940180F90079914980844139077
:10378000B9F1000F0EDAC9F100010CE0B800002019
:10379000BC000020C0000020C4000020C9000020A0
:1037A000B80800204946279801EB4020401EB9F197
:1037B000000F02DAC9F1000100E0494690FBF1F187
:1037C00013980844129000BF4848007808B90120B7
:1037D00000E00020044672B604EB0410444901EBFB
:1037E0008000C0F8148004EB0411414A02EB81010F
:1037F0001A98886104EB041102EB81011B98C861DF
:1038000004EB041102EB81011C98086204EB041024
:10381000114601EB8000C56004EB0411119842F8D9
:10382000210004EB041102EB81011198886004EB84
:103830000410114601EB8000C0F8049004EB041161
:1038400002EB81011498486204EB041102EB810140
:103850001398886204EB041102EB81011298C8628C
:1038600004EB041102EB81011098486304EB04118E
:1038700002EB81010F98886304EB041102EB8101D4
:103880002698C863002004EB041102EB8101086153
:1038900004EB041102EB8101086316490870002E45
:1038A00006DD04EB041102EB810181F8400012E017
:1038B000002E08DA012004EB04110D4A02EB81010D
:1038C00081F8400007E0022004EB0411084A02EBF3
:1038D000810181F840000548047062B60348007811
:1038E00000EB0010024901EB8000FBE5C90000205D
:1038F000B8080020B800002006484088054909881B
:10390000401A3230322190FBF1F201FB120080B2FA
:10391000704700001C00002001480068704700004C
:10392000B00000200146012901D10020704709B9EB
:103930000020FBE70020F9E70448007800EB0010C6
:10394000034901EB800090F840007047C800002058
:10395000B80800200448007800EB0010034901EB90
:103960008000806970470000C8000020B80800206F
:103970000448007800EB0010034901EB8000406927
:1039800070470000C8000020B808002001460A481F
:1039900000EBC1004088084A32F83120801A074AFB
:1039A00052F821201044054A52F82120B0FBF2F3CE
:1039B00002FB130080B27047580000207000002006
:1039C0000148006870470000CC00002001480068F2
:1039D00040027047D0000020014800787047000086
:1039E000E00000200A48007800EB0010094901EBD4
:1039F0008000006B0649097801EB0111054A02EBD2
:103A00008101C96A884201D2012070470020FCE789
:103A1000C8000020B808002070B5044604F001007A
:103A200068B104211048FDF710FA08B9012000E040
:103A3000002005462A4604210B48FDF713FA04F03E
:103A4000020078B14FF480710848FDF7FEF908B91B
:103A5000012000E0002005462A464FF4807103480B
:103A6000FDF700FA70BD000000080140000C0140A5
:103A700070B504460D4604F0010020B12A46042129
:103A80000648FDF7EFF904F0020028B12A464FF48A
:103A900080710348FDF7E6F970BD000000080140A1
:103AA000000C014008B501210420FDF73FFA012177
:103AB0000820FDF73BFA03208DF8020010208DF856
:103AC00003000420ADF8000069460B48FDF729F912
:103AD0004FF48070ADF8000069460848FDF721F901
:103AE000002204210448FDF7BDF900224FF4807143
:103AF0000248FDF7B7F908BD00080140000C01407D
:103B000008B501210420FDF711FA01210420FDF779
:103B10000DFA03208DF8020004208DF80300202008
:103B2000ADF8000069460548FDF7FBF81020ADF838
:103B3000000069460148FDF7F4F808BD000801409F
:103B400038B505460020FFF7EDFE8DF80000012096
:103B5000FFF7E8FE8DF80100002446E01DF80400A0
:103B600070B32348005DA8B9FFF72AFF214941F847
:103B70002400084650F82410204601F07BF9012D5E
:103B800005D11C4951F8240000F020FF02E000207C
:103B900000F0A2FE012D22D14CB9FFF7CDFE012885
:103BA0001DD1144951F8240000F010FF17E0FFF771
:103BB000C3FEA0B90F4951F8240000F007FF0EE042
:103BC0000B48005D01280AD1FFF7FAFE094941F8C8
:103BD0002400084650F82410204601F04BF91DF847
:103BE000040003490855601CC4B2012CB6DD38BD81
:103BF000F0000020F400002000F006FFFEF74CFF6C
:103C0000FEF7FCFFFEF7B4FF00F0A2F9FFF7B2F9F0
:103C10004FF4E131002000F059FFFFF771FFFFF78B
:103C200041FFFFF7D5F800E000BF33480078401CA3
:103C3000324909688842F7D8FEF796FCFFF7DEF8AC
:103C4000FFF778F957E02D4804682D480068844252
:103C500050D02C480068201A04281AD3FFF7DEF948
:103C6000054635B12848007818B92A202749086048
:103C700007E02548007820B11DB94FF48070234932
:103C800008602846FEF7B8FE1F4805701D4804600E
:103C900000BF1F480068201A202808D300F0E2FE69
:103CA000FFF79AFE08B1FFF7E5F819480460FFF73F
:103CB00093FE58B917480068201A144909688842C9
:103CC00004D30220FFF7A8FE1248046012480068DF
:103CD00028B111480068201AB0F5007F04D90021EE
:103CE0000120FFF7C5FE03E001210846FFF7C0FEF3
:103CF0000348046000BFA6E72C0000201400002049
:103D00000000002004000020100000201800002007
:103D1000080000200C0000202800002030B50346D9
:103D200014460819C2B20B480078824201DD002017
:103D300030BD07E0501A185C074DAD5CA84201D0B9
:103D40000020F5E71046551EEAB28842F2DC012059
:103D5000EEE70000EC0000204009002070B50446AA
:103D6000FFF73AFE00B170BD6C4800686C4908600E
:103D7000E07ABC2878D006DC45283AD0492855D0CE
:103D8000AA2824D106E0CC287ED0DD287DD0EE28DC
:103D9000F7D190E0A07A06282AD1217B607B41EA06
:103DA0000021A07B41EA0041E07B41EA0065267CDE
:103DB0005C480078AA280BD15B48007840B95B4882
:103DC0000068A84204D15A480078B04200D1A2E06D
:103DD000002055490870AA2052490870012E03D1CD
:103DE000284600F017FD02E0284600F075FD00BFF0
:103DF00091E0A07A052818D1217B607B41EA00215F
:103E0000A07B41EA0041E07B41EA00654948007837
:103E100020B949480068A84200D17CE0002045490B
:103E20000870284600F044FD00BF74E0A07A052821
:103E300019D1217B607B41EA0021A07B41EA00414E
:103E4000E07B41EA00653D48007828B93C480068BD
:103E5000A84201D15FE007E00020384908702846F9
:103E600000F030FD00BF56E0A07A052822D1217B6A
:103E7000607B41EA0021A07B41EA0041E07B41EA0E
:103E800000652848007801E037E028E0BC2807D129
:103E90002C48007820B92C480068854200D13AE0CF
:103EA000002028490870BC201E490870284600F0F0
:103EB0008DFD00BF2FE0A07A01280FD119480078AE
:103EC000EE2803D12148007800B924E000201F49E2
:103ED0000870EE201349087000F092FD1BE0A07AF4
:103EE000022809D1207B012800D100E000200546EE
:103EF000284600F0B5FC00BF0DE0A07A022809D1E9
:103F0000207B012800D100E000200546284600F073
:103F10004FFD00BF00BF00BF00BF24E7140000201A
:103F2000280000202D0000202E000020840000200A
:103F30008C0000202F0000207C000020300000209A
:103F40008000002031000020880000203200002086
:103F500008B501210820FCF7E9FF0120ADF80000B9
:103F600018208DF8030003208DF8020069460E48E2
:103F7000FCF7D7FE01210820FCF7D8FF0220ADF89E
:103F8000000003208DF8020010208DF80300694620
:103F90000548FCF7C6FE01210220FCF7A7FF002020
:103FA00000F0B4FB08BD0000000C014070B5FE48F5
:103FB0000078FE490978884206D0FB480078FB4922
:103FC00008700020FA490870F848007800EB0010EB
:103FD000F84901EB8000006BF449097801EB01110D
:103FE000F44A02EB8101496A88427CD2EF490978A0
:103FF00001EB011102EB81014B69EC4C247804EBDD
:104000000414154605EB840404F11402E74C2478EB
:1040100004EB041455F82440E44D2D7805EB051508
:10402000E44E06EB8505ED696119CC1701EBD4541C
:10403000156805EB64241460DC4A127802EB021266
:10404000344654F82220D94C247804EB0414354625
:1040500005EB8404E4691119CA1701EBD25252121C
:10406000A1EB4222D14C247804EB041405EB840428
:10407000E261CE49097801EB01112A4602EB810188
:1040800049691944C94A127802EB02122C4604EB22
:104090008202126A8818C54C247804EB041405EBDC
:1040A000840404F118020146C41700EB9454156807
:1040B00005EBA4241460C21700EB92529212A0EBFD
:1040C0008222BA4C247804EB0414354605EB8404B0
:1040D0002262B649097801EB01112A4652F82110F3
:1040E000B24A127800E006E002EB02122C4604EB22
:1040F0008202916014E0AD48007800EB0010AD49F9
:1041000001EB8000006BA949097801EB0111A94A74
:1041100002EB8101496A884202D1002000F0D2FA04
:10412000A248007800EB0010A24901EB8000006B70
:104130009E49097801EB01119E4A02EB8101496A0F
:10414000884270D39948007800EB0010114601EBCB
:104150008000006B9549097801EB011102EB8101A8
:10416000896A88425FD29148007800EB00101146BE
:1041700001EB8000C0688D49097801EB011102EB69
:104180008101486100208949097801EB011102EBA6
:104190008101C861854A127802EB0212854B03EB5C
:1041A000820202F11801814A127802EB021203EB3B
:1041B000820252697D4B1B7803EB03137D4C04EBA9
:1041C00083031B6AD018C21700EBD2520B6803EBB3
:1041D00062220A607549097801EB0111224602EB5F
:1041E00081014969714A127802EB0212234603EBFE
:1041F0008202126A8818C11700EBD1514912A0EB54
:1042000041216A4A127802EB021203EB8202116228
:1042100000206649097801EB01111A4602EB810181
:10422000886015E0FFE76148007800EB0010614905
:1042300001EB8000006B5D49097801EB01115D4ADB
:1042400002EB8101896A884202D1012000F03AFA2A
:104250005648007800EB0010564901EB8000006BD7
:104260005249097801EB0111524A02EB8101896A36
:1042700088427DD34D48007800EB0010114601EBD9
:104280008000016B4948007800EB001002EB8000D1
:10429000C06A401E81426BD24449097801EB01118A
:1042A00002EB81014B69414C247804EB0414154660
:1042B00005EB840404F114023C4C247804EB041450
:1042C00005EB84046468394D2D7805EB0515394EEE
:1042D00006EB8505ED696119CC1701EBD45415681F
:1042E00005EB64241460314A127802EB0212344662
:1042F00004EB820252682D4C247804EB04143546FA
:1043000005EB8404E4691119CA1701EBD252521269
:10431000A1EB4222254C247804EB041405EB840421
:10432000E2612249097801EB01112A4602EB810181
:10433000496919441D4A127802EB02122C4604EB1B
:104340008202126A8818194C247804EB041405EBD5
:10435000840404F118020146C41700EB9454156854
:1043600005EBA4241460C21700EB9252921200E0F5
:1043700022E0A0EB82220D4C247804EB0414354695
:1043800005EB840422620949097801EB01112A46F0
:1043900002EB81014968054A127802EB02122C46B1
:1043A00004EB8202916065E0C9000020C800002093
:1043B000CA000020B80800207848007800EB001000
:1043C000774901EB8000016B7448007800EB001026
:1043D000734A02EB8000C06A401E814235D16F48AB
:1043E000007800EB0010114601EB8000C06B6B49B8
:1043F000097801EB011102EB810188610020674916
:10440000097801EB011102EB810108626348007831
:1044100000EB0010114601EB800000695F4909784C
:1044200001EB011102EB8101486100205B49097831
:1044300001EB011102EB8101C8615849097801EBD8
:10444000011102EB8101886014E05448007800EB10
:104450000010534901EB8000006B5049097801EBD3
:1044600001114F4A02EB8101C96A884202D1022040
:1044700000F028F94948007800EB0010484901EBAA
:104480008000006B4549097801EB0111444A02EBB9
:104490008101C96A88426DD34048007800EB001062
:1044A000114601EB800000693C49097801EB0111DC
:1044B00002EB8101486100203849097801EB0111C4
:1044C00002EB8101C861354A127802EB0212344BCB
:1044D00003EB820202F11801304A127802EB021259
:1044E00003EB820252692D4B1B7803EB03132C4C18
:1044F00004EB83031B6AD018C21700EBD2520B687F
:1045000003EB62220A602549097801EB011122467A
:1045100002EB81014969214A127802EB021223461B
:1045200003EB8202126A8818C11700EBD1514912BD
:10453000A0EB4121194A127802EB021203EB82022E
:10454000116200201549097801EB01111A4602EBAE
:10455000810188601148007800EB0010114601EBE2
:104560008000C06A401C0D49097801EB011102EB83
:10457000810108630949097801EB0111084A02EB3E
:10458000810101F13000096B491C0160034800788A
:1045900000EB0010114601EB800070BDC800002048
:1045A000B808002072B63649097809B9012100E03F
:1045B00000210846002100EB0012324B03EB82027F
:1045C000D16200EB001203EB8202916200EB001259
:1045D00003EB82025162012100EB001203EB820225
:1045E00011632949096800EB001203EB8202916113
:1045F00000EB00111A4602EB8101896900EB001201
:1046000003EB8202D16300EB001203EB82029163A1
:1046100000EB001203EB82025163002100EB001259
:1046200003EB8202116200EB001203EB8202D16104
:1046300000EB001203EB8202516100EB001203EB6E
:104640008202116100EB001203EB8202D1600221B1
:1046500000EB001203EB820282F840100B4900EBE2
:10466000001203EB8202916000EB001243F822106B
:104670000121074A11700749087062B670470000AF
:10468000C9000020B8080020CC000020A0BB0D000D
:10469000CA000020C8000020002005490860054924
:1046A00008600549086005490860054908607047C9
:1046B0009000002094000020980000209C00002022
:1046C000A00000203EB504460F480078E030ADF869
:1046D000000001208DF8020024B1012C06D0022C2C
:1046E0000CD107E040208DF8030007E041208DF851
:1046F000030003E042208DF8030000BF00BF9DE8E7
:104700000700FEF73FFB3EBD2C00002010B588B02F
:1047100004462148FCF7E2FE41F63F70ADF8180070
:1047200014B9ADF8180003E040F69F70ADF818001A
:104730000020ADF81A00ADF81400ADF81A00ADF87D
:10474000160005A91448FDF759F86020ADF80400DB
:104750000020ADF80C000120ADF806000020ADF8F7
:104760000A0001A90C48FCF7EBFF08210A48FDF7F5
:1047700037F801210848FCF787FE01210648FCF7BD
:1047800092FE01210448FCF79AFE044804700020C0
:1047900000F0BEF808B010BD00040040B4000020D6
:1047A00070B502460B460020184908700024002509
:1047B0009A4203DB01200870002070BD1448805C21
:1047C0002D2802D10125501CC2B2114617E0104815
:1047D000405C30280CDB0E48405C392808DC0C4E6D
:1047E000765C303EF0B204EB840600EB460404E055
:1047F0000120064E30700020DFE7481CC1B299420C
:10480000E5DB0DB16042D8E72046D6E7ED00002099
:104810004009002010B504460E480460012000F055
:1048200037F80D4800684042844203DA0A480068BD
:10483000404207E008480068844202DD06480068FC
:1048400000E020460446054801682046FEF710FDBA
:1048500010BD000084000020800000207C000020AB
:1048600001490870704700008D00002010B5044613
:10487000012C04D102210548FCF7F2FA04E01CB92E
:1048800002210248FCF7EAFA10BD0000000C0140CA
:1048900010B5044605480078A04203D0FFF7FCFE9F
:1048A000FFF780FE0148047010BD00008C0000205E
:1048B000002801DA414200E00146014A11607047D8
:1048C0007C000020002801DA414200E00146014A54
:1048D000116070478000002010B504460A4804604B
:1048E0000020FFF7D5FF14F5FA5F01DC074806E06A
:1048F000B4F5FA5F02DB41F63F7000E02046044663
:10490000204600F005F810BD84000020C1E0FFFF44
:104910002DE9F0410446B4F5FA5F02DB41F63F743D
:1049200003E014F5FA5F00DC1D4C0120FEF7FAFFEE
:1049300008B1002C05DC0020FEF7F4FF10B1002CBC
:1049400000DA00243CB1002C01DC012100E0002150
:104950000846FFF78BFF134804601348007848B9F6
:10496000002C01DA604200E0204681B20F48FCF7DB
:1049700040FF13E0274604EBD7704010002805DA0B
:10498000264604EBD6704010404203E0254605EB76
:10499000D570401081B20548FCF72BFFBDE8F081CF
:1049A000C1E0FFFFB0000020B40000200004004080
:1049B00010B5044604480078A04204D02046FFF712
:1049C000A5FE0148047010BD8E00002010B50446FD
:1049D000002007490860074804600120FFF758FFDE
:1049E00005480268054801682046FEF76DFC10BDC9
:1049F00084000020880000207C000020800000202F
:104A000010B5FFF7CFFD10BD1FB501210420FCF745
:104A10006DFA4FF47A70ADF804004720ADF800004D
:104A200069460F48FCF7EAFE01210D48FCF738FD06
:104A3000012211460A48FCF77AFE01210848FCF7DA
:104A400032FD00208DF80D0001208DF80E008DF84C
:104A50000F001E208DF80C0003A8FCF70DFA1FBDF7
:104A600000080040FEB50D480078A8B9FEF754FFD5
:104A70000446FEF77DFF0546FEF76CFF0646FEF78F
:104A8000A5FF07463B460648CDE90065029402684B
:104A900004A1002000F0B2F8FEBD0000DC00002000
:104AA000CC000020256409256409256409256409D2
:104AB00025640D000020014908707047DC000020CB
:104AC0000120014908707047DC00002030B587B034
:104AD00004460D463D4951F824103D4A52F8242021
:104AE000114341F001000121FCF720FA34B93949A2
:104AF00051F824000121FCF719FA05E0354951F875
:104B000024000121FCF7F2F918208DF81B0032482F
:104B100030F81400ADF8180003208DF81A002F4962
:104B200051F8240006A9FCF7FCF804208DF81B00BE
:104B30002B4830F81400ADF818002A4951F8240029
:104B400006A9FCF7EEF802950020ADF80C00ADF8D0
:104B50000E00ADF81000ADF814000C20ADF81200F6
:104B6000214951F82400012240F22661FCF792FF0E
:104B70001D4951F82400012240F22551FCF78AFF1B
:104B80001A4810F814008DF8040004208DF8050070
:104B900003208DF8060001208DF8070001A8FCF71E
:104BA0006BF9114951F824000121FDF705F80E4970
:104BB00051F8240002A9FCF793FF0B4951F8240097
:104BC0000121FCF724FF07B030BD0000CC4E0008E7
:104BD000D84E0008C04E0008E44E000840000020F7
:104BE000EA4E00084C00002034000020F04E00087F
:104BF000014A42F820107047AC0800200FB430B5CD
:104C0000ADF5017D054686A880906846809A859915
:104C1000FDF720F8002080906C4604E014F8011B9A
:104C2000284600F039F820780028F7D10DF5017DED
:104C300030BC5DF814FB000010B50446134951F870
:104C400024008021FCF7EFFE01281DD12046FEF74D
:104C50009DFEC8B10E4800EBC40040680C4931F815
:104C60003410405C094951F824108880084830F815
:104C70003400401C074951F82410B0FBF1F201FB4D
:104C80001200034921F8340010BD00003400002058
:104C9000580000207000002070B504460D462046E4
:104CA000FEF774FE114951F82410884200D170BDFE
:104CB0000F4800EBC40040680D4901EBC40149886E
:104CC00045540B4800EBC4004088401C074951F88C
:104CD0002410B0FBF1F201FB1200054901EBC40105
:104CE00048802046FFF7A8FF00BFE0E770000020E3
:104CF000580000202DE9F05FFEF768FE0546FEF73C
:104D000029FE54490968401A53490860FEF730FEED
:104D1000401B524908600846006851490968401A1A
:104D2000504908604D4800684D4908604E48006889
:104D30004949096808444C49086008460068B0F5CC
:104D4000007F03DD4FF40070086007E0464800680C
:104D500010F5007F02DA4548434908600026B14655
:104D6000B246B346FEF7E8FD40B944F2C6764FF4CA
:104D700046794FF0620A4FF02A0B14E0FEF7DCFD93
:104D8000012808D144F2C6764FF446794FF0620A02
:104D90004FF02A0B07E044F2C6764FF446794FF005
:104DA000620A4FF02A0B2C48006870432E490968AC
:104DB00009FB0100294909680AFB01002949096822
:104DC0000BFB0100C11707464FF480620023FBF77D
:104DD000CBF904468CB3002D01DA684200E0284686
:104DE000B0F5805F29DD002D02DA4FF0FF3000E0E2
:104DF0000120002C02DA4FF0FF3100E0012188424F
:104E00001BD0002D01DA6A4200E02A461146D21773
:104E100001EBD2525012002C06DD211A002901DDCF
:104E20000C4600E0012407E02118002901DA0C46B5
:104E300001E04FF0FF3400BF00BFB4F5FA5F02DBC2
:104E400041F63F7403E014F5FA5F00DC084C20469D
:104E5000BDE8F09FCC0000209000002094000020CE
:104E6000A00000209C0000209800002000FEFFFF12
:104E7000C1E0FFFF3EB505460C4610480078E03023
:104E8000ADF8000005208DF802001DB930208DF826
:104E9000030002E031208DF80300E1B28DF8041028
:104EA000210A8DF80510210C8DF80610210E8DF8C1
:104EB00007109DE80700FDF765FF3EBD2C000020B0
:104EC0000040000000000200000004000400000098
:104ED00004000000080000000400000004000000BE
:104EE000080000000002040000040004080000089C
:104EF00025002600270000004D6179202034203253
:104F00003031382031383A35313A33310D00000034
:104F1000304F00080000002010010000781C00083D
:104F20004050000810010020680C0000881C000898
:104F3000FFFFFFFF00000000000000000000000075
:104F40000000000000000000000100000000000060
:104F500010010020000000000000000003AA010171
:104F600001010100003801400044004000480040B9
:104F70000008014000080140000C01400008014009
:104F800000080140000C014000000000D803002090
:104F900000000000D807002000000000E207002009
:104FA000000400000A000000C8000000A0BB0D00C3
:104FB000F0490200000000000000000000000000B6
:104FC00000000000000000000000000000000000E1
:104FD00000000000000000000000000000000000D1
:104FE00000000000000000000000000000000000C1
:104FF00000000000000000000000000000000000B1
:1050000000000000000000000000000000000000A0
:105010000000000000000000F84E00080000000042
:10502000020200000000000000000000000000007C
:10503000010203040102030406070809020406082A
:0400000508000131BD
:00000001FF
