:020000040800F2
:10000000880D002045010008BD0E0008B50E00084F
:10001000B90E000823080008991C00080000000021
:10002000000000000000000000000000891000082F
:10003000790D000800000000310F000801120008CF
:100040005F0100085F0100085F0100085F01000810
:100050005F0100085F0100085F0100085F01000800
:100060005F0100085F0100085F0100085F010008F0
:100070005F0100085F0100085F0100085F010008E0
:100080005F0100085F0100085F010008211C0008F3
:10009000411C00085F0100085F0100085F010008C3
:1000A0005F0100087D1300085F0100085F01000880
:1000B0005F0100085F010008B11400085F0100083B
:1000C0005F0100085F0100085F0100085F01000890
:1000D0005F010008E918000859190008C91900084B
:1000E0005F0100085F0100085F0100085F01000870
:1000F0005F0100085F0100085F0100085F01000860
:100100005F0100085F0100085F0100085F0100084F
:100110005F0100085F0100085F0100085F0100083F
:100120005F0100085F0100085F0100085F0100082F
:10013000DFF80CD000F0AAFA00480047993900080F
:10014000880D00200648804706480047FEE7FEE786
:10015000FEE7FEE7FEE7FEE7FEE7FEE7FEE7FEE777
:1001600005120008310100082DE9F0410024061BAA
:10017000254671F1000605DA01240027D0EB0700BF
:1001800067EB0101161E73F1000605DA0027D2EBBA
:100190000702012567EB030300F057F886460E4679
:1001A00017469C46AC4204D00025D0EB050E65EB0B
:1001B000010624B10020D2EB000760EB030C70466F
:1001C00031463A466346BDE8F081F0B4CA17CB0F1A
:1001D00050405140C61841F100054FEAC372314604
:1001E00028004FF0960303D0B623F0BC00F067B8A8
:1001F00030460021F9E720F00040C10DC0F31600A1
:1002000040F400007F2901DA00207047962903DCC2
:10021000C1F19601C840704796398840704730B5A3
:100220000B46014600202022012409E021FA02F5B4
:100230009D4205D303FA02F5491B04FA02F528444E
:10024000151EA2F10102F1DC30BD2DE9F05F05467B
:10025000002092469B4688460646814640241BE085
:10026000284641464746224600F031FA53465A4650
:10027000C01A914110D311461846224600F018FAD0
:100280002D1A67EB01084F4622460120002100F09D
:100290000FFA17EB00094E41201EA4F10104DFDC28
:1002A000484631462A464346BDE8F09F0029A8BF8C
:1002B0007047401C490008BF20F00100704710B48F
:1002C000B0FA80FC00FA0CF050EA010404BF10BC44
:1002D000704749B1CCF1200421FA04F411FA0CF171
:1002E00018BF012121430843A3EB0C01CB1D4FEAAA
:1002F00000614FEA102042BF002010BC704700EBA5
:10030000C35010440029A4BF10BC7047401C4900D2
:1003100008BF20F0010010BC70472DE9FE4F804659
:1003200081EA0300C00F0C46009021F0004123F049
:100330000045B8EB0200A94105D24046214690464F
:100340001C460B46024623F00040104347D0270DC1
:10035000C7F30A00C3F30A510290401A01904028E3
:100360006BDAC3F3130040F4801B0098924620B16F
:100370000023D2EB030A63EB0B0B01985946C0F143
:100380004002504600F094F906460D465046594644
:10039000019A00F0ACF910EB08006141002487EAF3
:1003A000115284EAE7731A4340D0009A62B3019A6B
:1003B000012A4FEA075215DC001B61EB02014FF0E6
:1003C000004202EA0752CDE90042001C41F58011CB
:1003D00032462B4600F0ACF903B0BDE8F08F404642
:1003E0002146F9E7001B61EB0201001C41F5801377
:1003F00000185B412018A2F5001747EB030140EA03
:10040000D570B6196D4111E06D084FEA360645EA20
:10041000C0754FEA0752001B61EB0201001C41F559
:10042000801149084FEA30000019514132462B46ED
:1004300003B0BDE8F04F00F06CB900980122400015
:100440000023D0EB020263EBE073009821464FEAF1
:10045000E074B8EB000061EB0401E9E783F00043CE
:100460005BE781F0004158E72DE9FE4F81EA030484
:1004700004F0004421F0004100944FF0000B23F001
:10048000004350EA01045ED052EA03045BD0C3F398
:100490000A54C1F30A552C44A4F2F3340194A0FB8E
:1004A0000254C1F3130141F48011C3F3130343F465
:1004B000801301FB024400FB034E840A970A44EABE
:1004C000815447EA8357A4FB076802958D0A05FB10
:1004D00007854FEA932C04FB0C542705029D4FEA35
:1004E000065847EA1637B5EB08056EEB070C870E82
:1004F000920E47EA811742EA8312A7FB0201B6EB8C
:100500000B0164EB00042B0D43EA0C335E1844EB43
:100510001C50DA465146E7FB0201C5F313044FEACB
:100520000B3343EA14534FEA0432019C43EA0603B7
:10053000A4F10C040294009CCDE900B400F0F8F89A
:1005400003B0BDE8F08F00200146F9E72DE9F04D3A
:1005500081EA030404F0004B21F0004514464FF0FB
:10056000000A23F0004150EA050220D054EA0102BB
:100570001DD0C5F30A570246C5F31303C1F3130098
:10058000C1F30A5640F4801543F48013A7EB060824
:10059000101BD64608F2FD3873EB050002D308F1B4
:1005A000010801E092185B41B8F1000F03DA002066
:1005B0000146BDE8F08D00204FF4801106468446C8
:1005C0000EE0171B73EB050705D3121B63EB050346
:1005D00006434CEA010C49084FEA300092185B418F
:1005E00050EA0107EDD152EA030012D082EA04007A
:1005F00083EA0501084305D0101BAB4106D2012256
:10060000002306E000224FF0004302E06FF00102F9
:1006100053101AEB06004CEB085110EB0A0041EBAB
:100620000B01BDE8F04D00F074B8C1F30A52C1F3FC
:10063000130140F2FF3341F480119A4202DA0020A4
:100640000146704740F233439A42A2F2334202DC41
:10065000524200F03CB800F02BB8000030B5041E48
:1006600071F1000404DB4FF00044404264EB0101EF
:10067000141E73F1000405DB1C464FF00043524288
:1006800063EB0403994208BF904230BD064C074D0E
:1006900006E0E06840F0010394E807009847103452
:1006A000AC42F6D3FFF748FD0C4E00082C4E000874
:1006B000202A04DB203A00FA02F100207047914022
:1006C000C2F1200320FA03F3194390407047202A17
:1006D00004DB203A21FA02F00021704721FA02F3EC
:1006E000D040C2F120029140084319467047202AA9
:1006F00006DBCB17203A41FA02F043EAE07306E04A
:1007000041FA02F3D040C2F1200291400843194659
:10071000704710B5141E73F1000408DA401C41F153
:10072000000192185B411A4301D120F0010010BD75
:100730002DE9F04D92469B4611B1B1FA81F202E0EB
:10074000B0FA80F220329046FFF7B2FF04460F461F
:1007500040EA0A0041EA0B0153465A46084313D0C7
:10076000114653EA010019D0C8F140025046FFF784
:10077000AEFF05460E46504659464246FFF798FFE3
:10078000084305D0012004E020463946BDE8F08D3D
:100790000020054346EAE0762C4337430A98630578
:1007A000E40AA0EB08000022FD0A44EA47540A309C
:1007B00002D500200146E9E7010510196941DDE98C
:1007C000084500196941BDE8F04DA2E770B58C18E5
:1007D00010F8015B15F0070301D110F8013B2A1155
:1007E00006D110F8012B03E010F8016B01F8016B42
:1007F0005B1EF9D12B0705D40023521E0DD401F83E
:10080000013BFAE710F8013BCB1A921C03E013F806
:10081000015B01F8015B521EF9D5A142D8D300203B
:1008200070BD00BFFEE70000B1F5007F3AD00FDCDD
:10083000202928D006DC01291CD004291DD0082934
:1008400040D11DE0402921D0B1F5807F3AD126E08A
:10085000B1F5004F31D006DCB1F5806F25D0B1F590
:10086000006F2FD124E0B1F5803F12D0B1F5003FE9
:1008700028D111E0154A826025E00822C26022E0FA
:100880001022C2601FE0082202611CE010220261F7
:1008900019E00822426016E01022426013E00422B0
:1008A000426010E0042242600DE0042242600AE04F
:1008B000002282610422426005E00022826104225B
:1008C000426000E000BF00BF70470000010101006E
:1008D00010B504460B48844209D10121480600F0B6
:1008E00039FB00214FF0007000F034FB08E00121DB
:1008F000880600F02FFB00214FF0806000F02AFBFB
:1009000010BD00000064004010B50021837A012270
:1009100002FA03F13D4A126842F001023B4B1A60B1
:100920003A4A1C3212688A43384B1C331A60027BE5
:10093000CAB9364A0C3212688A43344B0C331A60F7
:100940004288C38842EA0343304A4032847A42F8FC
:1009500034300288838842EA03432C4A4032847A46
:1009600002EBC4025360027B012A19D1274A0C32E0
:1009700012680A43254B0C331A604288038842EA06
:100980000343224A4032847A42F83430C288838852
:1009900042EA03431D4A4032847A02EBC4025360A8
:1009A000C27A3AB9194A121D12688A43174B1B1DA5
:1009B0001A6006E0154A121D12680A43134B1B1DEC
:1009C0001A60028932B9114A143212688A430F4BF5
:1009D00014331A600289012A06D10C4A14321268B3
:1009E0000A430A4B14331A60427B012A06D1074A94
:1009F0001C3212680A43054B1C331A60034A126802
:100A000022F00102014B1A6010BD00000066004098
:100A100070B504460D46002660692840002871D054
:100A2000B5F5807F5CD010DC082D35D006DC012DBB
:100A300020D0022D24D0042D72D127E0102D31D0EA
:100A4000202D35D0402D6BD138E0B5F5004F60D06A
:100A500009DCB5F5007F49D0B5F5806F4CD0B5F510
:100A6000006F5DD14FE0B5F5803F2DD0B5F5003F6B
:100A700056D12FE0A0682D4900F075F9064651E0E7
:100A8000E068032100F06FF906464BE0E0680821BA
:100A900000F069F9064645E0E068102100F063F9CE
:100AA00006463FE02069032100F05DF9064639E083
:100AB0002069082100F057F9064633E0206910212B
:100AC00000F051F906462DE06068082100F04BF96E
:100AD000064627E06068102100F045F9064621E04F
:100AE000A069012100F03FF906461BE0A069022140
:100AF00000F039F9064615E0A069042100F033F949
:100B000006460FE00FE0A069702100F02CF90646C0
:100B100008E06068042100F026F9064602E0FFE7DD
:100B2000002600BF00E00026304670BD0101010034
:100B30001AB143690B43436102E043698B4343614C
:100B4000704730B5024600200023146824F00204E8
:100B50001460146844F00104146000E05B1C5468E5
:100B600004F001041CB94FF6FF74A342F6D1546897
:100B700004F001040CB900206CE08C79012C04D144
:100B8000146844F08004146003E0146824F08004C6
:100B90001460CC79012C04D1146844F04004146032
:100BA00003E0146824F0400414600C7A012C04D192
:100BB000146844F02004146003E0146824F0200456
:100BC00014604C7A012C04D1146844F010041460B1
:100BD00003E0146824F0100414608C7A012C04D112
:100BE000146844F00804146003E0146824F0080456
:100BF0001460CC7A012C04D1146844F0040414600D
:100C000003E0146824F0040414608C78A407CD7801
:100C100044EA05640D7944EA05444D7944EA0554F3
:100C20000D886D1E2C43D461146824F001041460F7
:100C3000002300E05B1C546804F001041CB14FF673
:100C4000FF74A342F6D1546804F001040CB10020F3
:100C500000E0012030BD10B500F5D87303EB01139F
:100C60001B6803F004031372137A53B900F5D873A9
:100C700003EB01131B6840F2FF7404EA5353136043
:100C800009E000F5D87303EB01131B686FF06044B3
:100C900004EAD303536000F5D87303EB01131B6818
:100CA00003F00203537200F5D87303EB01135B6882
:100CB00003F00F03937200F5D87303EB01135B6825
:100CC0001B0AD37400F5D87303EB01139B68D3722E
:100CD00000F5D87303EB01139B681C0A147300F52D
:100CE000D87303EB01139B681C0C547300F5D87385
:100CF00003EB01139B681B0E937300F5D87303EB92
:100D00000113DB68D37300F5D87303EB0113DB68C1
:100D10001C0A147400F5D87303EB0113DB681C0C78
:100D2000547400F5D87303EB0113DB681B0E937446
:100D300021B9C36843F02003C36003E0036943F0B3
:100D40002003036110BD00218171C17101724172E4
:100D50008172C1728170C1700321017102214171E0
:100D60000121018070470246002002EA01030BB115
:100D7000012000E00020704770472DE9F041024655
:100D800000250026002000230024002791F803C03E
:100D90000CF00F0591F803C00CF0100CBCF1000F23
:100DA00003D091F802C04CEA050591F800C0BCF1EF
:100DB000000F31D0146800202BE04FF0010C0CFA2A
:100DC00000F3B1F800C00CEA03069E4220D1830074
:100DD0004FF00F0C0CFA03F7BC4305FA03FC4CEA86
:100DE000040491F803C0BCF1280F06D14FF0010CA8
:100DF0000CFA00FCC2F814C00AE091F803C0BCF180
:100E0000480F05D14FF0010C0CFA00FCC2F810C0DD
:100E1000401C0828D1D31460B1F800C0BCF1FF0F0A
:100E200034DD546800202EE000F1080C4FF001087A
:100E300008FA0CF3B1F800C00CEA03069E4221D177
:100E400083004FF00F0C0CFA03F7BC4305FA03FCC8
:100E50004CEA040491F803C0BCF1280F05D100F15D
:100E6000080C08FA0CF8C2F8148091F803C0BCF121
:100E7000480F07D100F1080C4FF0010808FA0CF8F0
:100E8000C2F81080401C0828CED35460BDE8F08121
:100E900002460020D3680B400BB1012000E0002087
:100EA000704741617047016170470AB1016100E01C
:100EB0004161704700BFFEE700BFFEE770470000DA
:100EC00070B5002100230F22C47804B3154C2468A8
:100ED00004F4E064C4F5E064210AC1F10403CA40EB
:100EE000447804FA03F184781440214309010E4C3C
:100EF0000678A155047804F01F050124AC4005785C
:100F00006D11AD0005F1E025C5F8004109E0047858
:100F100004F01F050124AC40044D0678761145F815
:100F2000264070BD0CED00E000E400E080E100E050
:100F30007047000029B1064AD2690243044BDA61C6
:100F400004E0034AD2698243014BDA617047000032
:100F50000010024029B1064A12690243044B1A618B
:100F600004E0034A12698243014B1A617047000092
:100F70000010024029B1064A92690243044B9A616B
:100F800004E0034A92698243014B9A617047000072
:100F90000010024029B1064AD2680243044BDA60CD
:100FA00004E0034AD2688243014BDA6070470000D4
:100FB0000010024030B500210022002400232D4DF6
:100FC0006D6805F00C0121B1042905D0082923D151
:100FD00005E0294D056022E0274D05601FE0254D05
:100FE0006D6805F47012234D6D6805F48034022598
:100FF00005EB92421CB9214D554305600BE01D4D98
:101000006D6805F400351DB11C4D5543056002E0C7
:10101000194D5543056002E0174D056000BF00BF44
:10102000144D6D6805F0F0010909154D6B5C0568FC
:10103000DD4045600F4D6D6805F4E061090A104D13
:101040006B5C4568DD4085600A4D6D6805F4605154
:10105000C90A0B4D6B5C4568DD40C560054D6D6888
:1010600005F44041890B074D6B5CC568B5FBF3F592
:10107000056130BD0010024000127A0000093D00F9
:101080001801002028010020704710B500F002F878
:1010900010BD00000CB5002001900090334800689E
:1010A00040F480303149086000BF3048006800F4E7
:1010B000003000900198401C0190009818B90198E8
:1010C000B0F5A06FF1D12948006800F4003010B1EC
:1010D0000120009001E0002000900098012843D1F9
:1010E0002348006840F01000214908600846006865
:1010F00020F0030008600846006840F00200086025
:101100001A484068194948600846406848600846DF
:10111000406840F4806048600846406820F47C10D5
:1011200048600846406840F4E81048600846006897
:1011300040F08070086000BF0C48006800F000704C
:101140000028F9D00948406820F0030007494860AA
:101150000846406840F00200486000BF034840680D
:1011600000F00C000828F9D10CBD0000001002406E
:10117000002002402DE9F84F04460D4600210846A4
:10118000611A75EB000004DA0021604261EB050191
:1011900001E02046294604460D4620462946FFF731
:1011A00014F800901549009801EB50000090009849
:1011B000FFF721F8009020464FF480430022A0FB67
:1011C000036B05FB03B104FB0211DDF800C06246AE
:1011D00000233046FEF7C8FF009A861841F1000050
:1011E00016F1010840F10001022200234046FEF7FB
:1011F000BBFF00900098C000BDE8F88F00403B2383
:101200007047000010B51348006840F00100114914
:10121000086008464068104908400E494860084682
:1012200000680E4908400B4908600846006820F431
:10123000802008600846406820F4FE0048604FF4B3
:101240001F008860FFF721FF4FF00060044908602D
:1012500010BD0000001002400000FFF8FFFFF6FE86
:1012600008ED00E0F0B50C46154600220021068C82
:101270004FF6FE773E400684028B018C4FF60C76CB
:1012800032407E1C06EA03162E433243104EB04213
:101290000ED0104EB0420BD0B0F1804F08D00E4EA1
:1012A000B04205D00D4EB04202D00D4EB04206D134
:1012B0004FF6FD76314044F00106314305E04FF62C
:1012C000F576314044F00106314302830184F0BDDC
:1012D000002C0140003401400004004000080040A0
:1012E000000C0040F0B50C461546002200210026F7
:1012F000078C4FF6EF7C07EA0C070784028B018C02
:101300004FF6FF7707EA041640F6FF473A404FF6DC
:10131000FF7707EA03373A434FF6FF7707EA0527D7
:101320003A43114FB8420ED0104FB8420BD0B0F133
:10133000804F08D00E4FB84205D00E4FB84202D0B1
:101340000D4FB84206D14FF6DF77394046F010070F
:10135000394305E04FF65F77394044F010073943D1
:1013600002830184F0BD0000002C014000340140E4
:101370000004004000080040000C004070B501214E
:10138000424800F0E7F900287FD001213F4800F0F3
:10139000ABF83F48007802F0A3FA01F053FE3C4856
:1013A0000078012871D1002402F0EAF9002860D108
:1013B00001F030FE00285CD036480078401C00F078
:1013C0007F003449086003F013F802F0A9FF3248A7
:1013D000007800283AD03148006843F67F6180FBEE
:1013E000015001462E480268D3172846FEF7BCFE7E
:1013F00004462C48006800F50070844204DD29484A
:10140000006800F500740AE026480068A0F5007046
:10141000A04204DD234800684042A0F500743CB9B6
:101420002148007810B94FF0FF340CE001240AE0A5
:10143000002C03DD00201C49087004E0002C02DAB7
:10144000012019490870174804601AE00020134968
:10145000086010480068082802D140F2CF7410E0FC
:101460000C480068042802D1104C0AE00DE000246A
:1014700007E000200749086002F06AFC03F0F8FA70
:101480000446204603F0F6F800BF70BD002C014072
:1014900090000020C0000020910000208800002063
:1014A00084000020C8000020C400002031F8FFFFA5
:1014B00010B505480068401C034908600121034835
:1014C00000F012F810BD00001400002000080040D9
:1014D00021B1028842F08002028004E002884FF6C7
:1014E0007F731A4002807047CA430282704721B15D
:1014F000028842F00102028004E002884FF6FE7387
:101500001A400280704731B1B0F8442042F40042E2
:10151000A0F8442005E0B0F84420C2F30E02A0F881
:101520004420704710B504466848844208D1012120
:10153000C014FFF72FFD0021E014FFF72BFDC4E0DE
:10154000B4F1804F08D101210846FFF703FD0021C7
:101550000120FFF7FFFCB8E05D48844208D101217B
:101560000220FFF7F7FC00210220FFF7F3FCACE0BC
:101570005848844208D101210420FFF7EBFC0021E8
:101580000420FFF7E7FCA0E05348844208D1012182
:101590000820FFF7DFFC00210820FFF7DBFC94E0C8
:1015A0004E48844208D101211020FFF7D3FC0021CE
:1015B0001020FFF7CFFC88E04948844208D1012180
:1015C0002020FFF7C7FC00212020FFF7C3FC7CE0B0
:1015D0004448844208D101214014FFF7DBFC00217C
:1015E0006014FFF7D7FC70E03F48844209D1012125
:1015F000C804FFF7CFFC00214FF40020FFF7CAFC1E
:1016000063E03A48844209D101210805FFF7C2FC92
:1016100000214FF48010FFF7BDFC56E034488442AF
:1016200009D101214805FFF7B5FC00214FF4001056
:10163000FFF7B0FC49E02F48844208D10121402047
:10164000FFF788FC00214020FFF784FC3DE02A489A
:10165000844208D101218020FFF77CFC00218020FA
:10166000FFF778FC31E02548844208D1012180153C
:10167000FFF770FC0021A015FFF76CFC25E0204867
:10168000844209D101210804FFF784FC00214FF4B2
:101690008030FFF77FFC18E01A48844209D101210D
:1016A0004804FFF777FC00214FF40030FFF772FC8D
:1016B0000BE01548844208D101218804FFF76AFC39
:1016C00000214FF48020FFF765FC10BD002C014085
:1016D0000004004000080040000C004000100040E2
:1016E0000014004000340140004C01400050014013
:1016F0000054014000180040001C00400020004041
:10170000004001400044014000480140F0B50C4653
:1017100015461E460021002200230189028B038CFE
:101720004FF6F877394021434FF6FC473A4040F2F4
:1017300001173A434FF6DD773B404FF6FF7707EA54
:1017400006172F433B43018102830384F0BD01460A
:10175000888C704730B50246002000230024158A8B
:1017600005EA0103958905EA010413B10CB10120D2
:1017700000E0002030BD1AB183890B43838102E071
:1017800083898B438381704770B500240022002336
:10179000058C4FF6FF6635400584028C8388848B68
:1017A0004FF68F752C404FF6FC752C400D882C435E
:1017B0004FF6FF552A400D894FF6FF7606EA0525BC
:1017C0002A434D8806EA05252A43154DA84202D032
:1017D000144DA8421DD14FF2FF752A404D894FF696
:1017E000FF7606EA05252A434FF6FF352A408D8805
:1017F00006EA05252A434EF6FF752B404DF6FF7588
:101800002B408D8906EA05152B43CD8906EA05157F
:101810002B4383808483CD888587028470BD00003C
:10182000002C0140003401400A460021818B4FF614
:10183000F773194011438183704781877047818412
:1018400070470000002202881D4B98420ED01D4BAD
:1018500098420BD0B0F1804F08D01B4B984205D076
:101860001A4B984202D01A4B984204D14FF68F730C
:101870001A404B881A43174B984207D0164B984290
:1018800004D04FF6FF431A40CB881A4302808B885E
:1018900083850B8803850A4B98420BD0094B9842ED
:1018A00008D00E4B984205D00D4B984202D00D4BFC
:1018B000984201D10B7A038601238382704700008E
:1018C000002C0140003401400004004000080040AA
:1018D000000C004000100040001400400040014097
:1018E000004401400048014010B51949086840F221
:1018F000255100F0C9F8012812D11648006840B1FE
:101900001349086800F087F9C4B2124801682046FC
:1019100088470F49086840F2255100F08DF810E023
:101920000B49086840F2266100F0AEF8012808D1A2
:10193000002003F03FF80649086840F2266100F0F5
:101940007BF803480068008801480068808810BD63
:1019500034000020C808002010B51949486840F23A
:10196000255100F091F8012812D11648406840B185
:101970001349486800F04FF9C4B212484168204644
:1019800088470F49486840F2255100F055F80FE0AC
:101990000B49486840F2266100F076F8012807D12B
:1019A00003F008F80649486840F2266100F044F860
:1019B00003484068008802484068808810BD0000E5
:1019C00034000020C808002010B51949886840F28A
:1019D000255100F059F8012812D11648806840B10D
:1019E0001349886800F017F9C4B21248816820468C
:1019F00088470F49886840F2255100F01DF810E033
:101A00000B49886840F2266100F03EF8012808D1B1
:101A1000022002F0CFFF0649886840F2266100F0FC
:101A20000BF803488068008801488068808810BDF2
:101A300034000020C808002010B50022002340F622
:101A40006A14A14200D100BF0A1201249440A3B23B
:101A5000DC43048010BD21B1828942F400528281AE
:101A600004E082894DF6FF731A4082817047024676
:101A70000020B1F5007F00D100BF13880B400BB1EF
:101A8000012000E00020704770B5024600240023CA
:101A90000025002040F66A16B14200D100BFC1F314
:101AA000421501F01F03012606FA03F3012D02D1AE
:101AB0009689334006E0022D02D1168A334001E0B8
:101AC000968A33400C12012606FA04F41688344034
:101AD00013B10CB1012000E0002070BDF0B5034649
:101AE000002400260025002040F66A17B94200D1E4
:101AF00000BF1846C1F3421401F01F06012707FA80
:101B000006F5012C01D10C3004E0022C01D110307B
:101B100000E014301AB107682F43076002E007683D
:101B2000AF430760F0BD00002DE9F04786B00546E1
:101B30000E460024A24600BFA1460027B08900B18E
:101B400000BF2F462C8A4CF6FF700440F0880443F7
:101B50002C82AC894EF6F3100440B08831890843DA
:101B6000718908430443AC81AC8A4FF6FF400440BE
:101B7000B0890443AC8201A8FFF71CFA1F488742D2
:101B800002D1DDF810A001E0DDF80CA0A88900F476
:101B9000004040B10AEBCA0000EB0A10316849006E
:101BA000B0FBF1F807E00AEBCA0000EB0A1031685D
:101BB0008900B0FBF1F86420B8FBF0F004012009C3
:101BC000642101FB1089A88900F4004040B1322053
:101BD00000EBC900B0FBF1F000F00700044308E09F
:101BE000322000EB09106421B0FBF1F000F00F008F
:101BF00004432C8106B0BDE8F087000000380140A6
:101C000021B1828942F40042828103E08289C2F3D9
:101C10000E028281704701468888C0F30800704731
:101C200010B501210548FEF7F3FE28B10121034854
:101C3000FEF7FAFD01F02EF810BD00000064004030
:101C400010B586B002211148FEF7E2FEE0B1022194
:101C50000E48FEF7E9FD01AA00210C48FEF7FBFF44
:101C60009DF80C0078B99DF81740094850F82400F9
:101C700040B108480078844204DA054850F824103E
:101C800001A8884700BF00BF06B010BD0064004037
:101C9000840300202400002000BFFEE737B514466F
:101CA0000846064B6A46214600F0DCF804466946C1
:101CB000002000F06EFC20463EBD00009325000889
:101CC00002E008C8121F08C1002AFAD17047704705
:101CD000002001E001C1121F002AFBD17047000063
:101CE0002DE9FF5F82B00021DDE90430020DDDF84F
:101CF00040B0034318D044F61050A2F2FF324243E2
:101D00001514119801281FD0A5EB0B00401C5FEAA9
:101D1000000A4FF000064E4FDFF83891B0465046AB
:101D200015D5CAF1000413E0119801244AA3012833
:101D300001D16FEA0B010298119AC0E90031C0E9A4
:101D4000024206B0BDE8F09FCBF10000DFE7044699
:101D50000021404A491842EB0450CDE9001012E03E
:101D6000E00707D032463B4640464946FEF77CFB3B
:101D70008046894632463B4610461946FEF774FBBC
:101D800006460F466410002CEAD1DDE90401DDE9C6
:101D90000023BAF1000F06DAFEF766FB42464B4617
:101DA000FEF762FB05E0FEF7D1FB42464B46FEF72D
:101DB000CDFB04460E460022284BFEF74FFC03D80D
:101DC0004FF0FF30014607E00022254B2046314608
:101DD000FEF7A3FAFEF729FC102409E0002C0ADB29
:101DE0000A220023FEF731FA039B30321A55641E93
:101DF00050EA0102F2D1641C039AC4F111031444A5
:101E0000119A012A03D0012208430DD10AE00843A8
:101E100004D000204FF0110B119072E7A3EB0B05DB
:101E20006D1E0DE05B4504DD4FF0000205F101057C
:101E300004E003DA4FF00002A5F10105002AECD01E
:101E400002981199C0E90231C0E9004579E7000024
:101E5000000014400000F03F300000000000F0439C
:101E60000000E03F2DE9FF4F95B09B4689460646AE
:101E700000250FE2252877D100242746F84A0121C2
:101E8000059400E0044316F8013F203B01FA03F0FB
:101E90001042F7D130782A2811D06FF02F03307814
:101EA000A0F13002092A16D8059A44F0020402EB88
:101EB000820203EB42021044761C0590EFE759F8CA
:101EC000042B0592002A03DA504244F40054059092
:101ED00044F00204761C30782E2816D116F8010F33
:101EE00044F004042A280DD06FF02F023078A0F1BE
:101EF0003003092B09D807EB870302EB4303C7180C
:101F0000761CF3E759F8047B761C30786C280FD0E8
:101F100006DC4C2817D068280DD06A2814D104E0BC
:101F2000742810D07A280FD10DE044F400140AE090
:101F300044F4801401E044F440147278824202D1E7
:101F400004F58014761C761C307866280BD013DCE0
:101F5000582877D009DC002875D04528F6D04628C7
:101F6000F4D047281AD19DE118E0632835D06428C1
:101F700079D0652812D195E1702873D008DC6728E4
:101F8000F1D069286FD06E280DD06F2806D1B5E04A
:101F900073282CD0752875D0782874D05A46179994
:101FA00090476D1C75E1C4F30250022809D0032844
:101FB0000DD0D9F8001004280DD00D6009F10409E6
:101FC00067E1D9F80010EA17C1E90052F6E7D9F83D
:101FD00000100D80F2E70D70F0E719F8041B8DF882
:101FE000001000208DF80100EA46012003E059F8B6
:101FF00004AB4FF0FF3061074FF0000102D40DE059
:1020000008F101018846B9420FDA8045F8DB1AF879
:1020100008100029F4D108E008F101018846814246
:10202000FADB1AF808100029F6D105985B46A0EBF8
:10203000080721463846179A00F094FA284400EB26
:10204000080507E04DE029E10DE01AF8010B5A46BA
:1020500017999047B8F10108F7D25B4621463846F8
:10206000179A13E142E00A220092C4F302524FF0A1
:10207000000A022A08D059F804CB032A4FEAEC716F
:102080000AD00DE029E02AE009F1070121F007025A
:10209000F2E802C1914609E00FFA8CFC4FEAEC71BC
:1020A000042A03D14FFA8CFC4FEAEC71002907DABD
:1020B0000A460021DCF1000C61EB02012D2202E056
:1020C000220504D52B228DF80420012203E0E2072B
:1020D00001D02022F7E7904659E00A2102E01022C1
:1020E0000DE010214FF0000A00910BE010224FF09C
:1020F000000A44F004040827009203E008224FF08D
:10210000000A0092C4F30252022A05D059F804CB07
:102110000021032A08D009E009F1070121F0070294
:10212000F2E802C1914605E01FFA8CFC042A01D1B5
:102130000CF0FF0C4FF00008220728D5702806D0BD
:10214000009B83F0100353EA0A0305D00EE04022FF
:102150008DF80420012208E05CEA010206D030225A
:102160008DF804208DF8050002229046009B83F034
:10217000080353EA0A030AD15CEA010201D16207AB
:1021800005D530228DF804204FF001087F1E582815
:1021900004D034A003900EA802900DE036A0F9E719
:1021A00053466046009AFEF750F884460398825CD6
:1021B0000298401E029002705CEA0100F0D1029881
:1021C00006A9081A00F1200A600702D524F4803419
:1021D00000E00127574502DDA7EB0A0000E00020E0
:1021E00000EB0A01009005984144401A0590E00375
:1021F00006D45B462146179A059800F0B3F90544CA
:10220000002706E001A85A46C05D179990476D1C4B
:102210007F1C4745F6DBE0030CD55B462146179A49
:10222000059800F09FF9054404E030205A461799BC
:1022300090476D1C0099481E00900029F5DC08E0CD
:10224000029802995A460078491C029117999047C2
:102250006D1CBAF10001AAF1010AF1DC65E1000090
:10226000092801003031323334353637383961626C
:102270006364656600000000303132333435363730
:1022800038394142434445460000000000F058F907
:102290000544761C307800287FF4ECAD19B0284650
:1022A000BDE8F08F620700D4062709F1070222F08B
:1022B000070CFCE80223E14603F000485FEA080C43
:1022C00002D00FF2702C0DE05FEA045C02D50FF231
:1022D000682C07E05FEAC47C02D00FF2602C01E0BA
:1022E000AFF2700C4FF0FF3823F00043CDF850C030
:1022F00065280CD006DC452809D046281DD0472883
:102300003DD13DE0662818D067287ED138E0002115
:10231000112F01DB112000E0781CCDE9000106A996
:102320000EA8FFF7DDFCDDE90F010E9A03910021F5
:10233000009207F1010A04914DE04FF00040009730
:10234000CDE9011006A90EA8FFF7CAFCDDE90F02CE
:1023500003920E9B11990022DDF80CA000930492C9
:1023600011B9791C00EB010AB7EB0A0004D4C0F1E3
:10237000FF3007F1010A0490AAEB0700019044E046
:10238000012F00DA01270021112F01DD112000E0CB
:102390003846CDE9000106A90EA8FFF7A1FCDDE94A
:1023A0000F010E9A0391002104910092BA46210771
:1023B0000CD40399514500DA8A46BAF1010F05DDC4
:1023C000009AAAF10101515C302908D0B84202DA22
:1023D00010F1040F06DA0121CDE9011015E0AAF190
:1023E0000101E9E7002805DC049901440491AAEB06
:1023F000000102E0411C514500DD8A460499401A63
:10240000401C01904FF000400290200704D4019836
:10241000504501DBCDF8048000208DF84F00029874
:102420000DF14F07B0F1004F25D02B200E900298F0
:102430004FF0020800280CDA404202902D200E9046
:1024400007E00A210298FDF7EAFE3031029007F812
:10245000011DB8F10001A8F10108F2DC0298002882
:10246000EFD1791E0E980870307800F0200040F00F
:10247000450007F8020D12A8C01B00F107081498C8
:10248000007800B1012000EB0A01019801EBE07136
:1024900005984144401A401E0590E00306D45B466F
:1024A0002146179A059800F05DF8054414980078C5
:1024B00018B15A46179990476D1CE00324D55B4626
:1024C0002146179A059800F04DF805441CE0049841
:1024D000002807DBDDE90301884203DD0098405C4A
:1024E000179901E0179930205A469047049805F152
:1024F0000105401C04900198401E019004D12E203B
:102500005A46179990476D1CBAF10001AAF1010AC9
:10251000DDDC05E017F8010B5A46179990476D1C52
:10252000B8F10001A8F10108F4DC5B462146179AD6
:102530000598ABE62D0000002B00000020000000F5
:102540002DE9F041044600251E461746880404D4B0
:1025500005E039462020B0476D1C641EF9D5284699
:10256000BDE8F0812DE9F041044600251E46904665
:10257000C80301D5302700E02027880404D505E0F2
:1025800041463846B0476D1C641EF9D52846BDE863
:10259000F0810A68531C0B601070704710B5044638
:1025A0000D2C02D100F022F80DE007480749097808
:1025B000445406480078401C322190FBF1F201FBA4
:1025C00012000249087010BD5409002008010020C3
:1025D00010B50449002002F0C9F900200249087032
:1025E00010BD00009D2500080801002070B586B0D0
:1025F000C7480078022870DB02220021C5A001F044
:102600005DFA002869D0C2480078022804D1C2A12E
:10261000002002F0B1F976E101220221BFA001F011
:102620004DFA00287ED004220321BDA001F046FA15
:1026300030B102F003F9B8A1002002F09DF962E187
:1026400004220321B8A001F039FA30B102F0F0F809
:10265000B1A1002002F090F955E106220321B4A0B7
:1026600001F02CFA28B1B4480168002002F084F986
:1026700049E108220321B1A001F020FA002832D05C
:10268000B148C07A3F280BD1A14800780C2807D167
:10269000AE480278521CAEA1002002F06DF932E182
:1026A000A948C07A3D2819D1994801780C2001F039
:1026B00029FF0446A948007850B9002C08DB0F2CEC
:1026C00006DCA2490C7094A1002002F055F903E049
:1026D000A3A1002002F050F915E110E1A0A1002013
:1026E00002F04AF90FE10D2203219FA001F0E6F963
:1026F00030B14FF40072A0A1002002F03DF902E1D8
:102700000A2203219DA001F0D9F9C0B100F0DEFF3B
:10271000044601F02FF8054601F026F806469A48CF
:10272000006800E0E6E0994909682B463246CDE9A9
:102730000041029096A1002002F01EF9E3E004227D
:1027400003219DA001F0BAF9A8B1714801780720D2
:1027500001F0D8FE04468148007838B9204601F0DF
:1027600059FF6DA1002002F007F903E07CA10020D1
:1027700002F002F9C7E00822032191A001F09EF9BE
:10278000A8B1634801780B2001F0BCFE04467348F1
:10279000007838B9204601F047FF5FA1002002F021
:1027A000EBF803E06EA1002002F0E6F8ABE00922AE
:1027B000032186A001F082F928B3554801780C2046
:1027C00001F0A0FE054665480078B8B9284601F03A
:1027D000BBFF044694F83C00D4E90C23A16BCDE97F
:1027E0000223CDE90410D4E90901CDE900017AA161
:1027F0000020236AA26802F0BFF803E058A100207D
:1028000002F0BAF87FE00922032182A001F056F914
:1028100028B33F4801780C2001F074FE05464F486C
:102820000078B8B9284601F0A7FE044694F83C00A9
:10283000D4E90C23A16BCDE90223CDE90410D4E93E
:102840000901CDE9000164A10020236AA26802F019
:1028500093F803E042A1002002F08EF853E0042236
:1028600003216FA001F02AF9D8B129480178072087
:1028700001F048FE04463948007868B914F57A5FDB
:102880000ADDB4F57A5F07DA204601F0D7FE22A10F
:10289000002002F071F803E031A1002002F06CF892
:1028A00031E00522032160A001F008F930B100F009
:1028B00003FC19A1002002F05FF824E006220321A6
:1028C0005BA001F0FBF880B1012000F005FF044699
:1028D000002000F001FF054600202B46024656A1CD
:1028E000CDE9000402F048F80DE01DA1002002F03F
:1028F00043F808E01AA1002002F03EF803E018A116
:10290000002002F039F800200149087006B070BDBF
:1029100008010020415400004F4B0D002B00000027
:1029200053485554000000004C4956450000000033
:102930004255494C443F0000040100204D4F544F84
:10294000525F494400000000540900202C00002080
:102950004D4F544F525F25640D00000009010020C7
:102960004552524F520D0000434F4E54524F4C5F50
:10297000465245513F00000025640D004C49535418
:102980005F56414C55450000840000208000002027
:10299000504F533A25640D56454C3A25640D505717
:1029A0004D3A25640D4143433A25640D4D4158206D
:1029B00056454C3A25640D004143433D000000005C
:1029C0004D41585F56454C3D000000005041544871
:1029D0005F504F533D00000056543A25640D54316A
:1029E0003A25640D54323A25640D54333A25640D6A
:1029F00054312050543A25640D54322050543A2515
:102A0000640D54332050543A25640D4449523A25FC
:102A1000640D0000504154485F56454C3D00000095
:102A200050574D3D0000000044454255470000000E
:102A30004C494D49543F00004C4F204143543A25E6
:102A4000642053544154453A25640D48492041437C
:102A5000543A25642053544154453A25640D0000EE
:102A6000FEB5064624480078E030ADF800000820A6
:102A70008DF8020022208DF803002EB19DF803008E
:102A800040F001008DF80300002000F025FE28B181
:102A90009DF8030040F004008DF80300012000F0D1
:102AA0001BFE28B19DF8030040F008008DF80300DC
:102AB00012480468E1B28DF80410210A8DF805105F
:102AC000210C8DF80610210E8DF8071000F0FEFD88
:102AD0000546E9B28DF80810290A8DF80910802002
:102AE00000EA2560C5F3064108438DF80A009DE819
:102AF000070000F07BF9FEBD2C000020E80000205C
:102B000000B585B001210846FEF734FA0121042002
:102B1000FEF730FA01214806FEF70CFA01210420E5
:102B2000FEF728FA4FF40060ADF8100048208DF849
:102B3000130003208DF8120004A92548FEF71DF9A3
:102B40004FF48050ADF8100018208DF813000320CA
:102B50008DF8120004A91E48FEF70FF91D48FDF775
:102B6000B7FE01A8FEF7EFF800208DF80A0001205B
:102B70008DF80B0000208DF80C008DF80D008DF8FD
:102B80000E008DF80F008DF806008DF80700032069
:102B90008DF8080000208DF809000620ADF804002B
:102BA00001A90C48FDF7CDFF012211460948FDF7A8
:102BB000BFFF13208DF8000001208DF801008DF873
:102BC00002008DF803006846FEF77AF905B000BDF3
:102BD000000801400064004010B50549097801F182
:102BE000D000044A40F2FF7100F006F810BD00006A
:102BF0002C000020FD3A00087FB505460C4616461D
:102C00001F2040EA441084B2144800788DF80A006E
:102C100000208DF80B0001208DF80C004FF6FF709E
:102C200000EA4510ADF800000020ADF80200ADF854
:102C30000440ADF80600ADF8080001208DF80D0045
:102C40006846FDF761FE06480449097840F82160AE
:102C500002480078401C014908707FBD2400002014
:102C60008403002008B5012202210948FDF760FF16
:102C700014208DF8000000208DF8010004208DF84C
:102C8000020001208DF803006846FEF719F908BD1F
:102C90000064004000B500F009FD00287ED05048D7
:102CA000006800F08060B0F1806F77D14D48006817
:102CB00000F001004B4908604B4840684A490988C8
:102CC00001EB410130F82100002141EA4050454923
:102CD0000968084343490860081D006820F00F0197
:102CE0004048001D0160404840683F49098801EBA9
:102CF000410100EB810080783A49091D09680843C9
:102D00003849091D0860384840683749098801EB8F
:102D1000410100EB81008079010633484068324A66
:102D2000128802EB420200EB8200407941EA004146
:102D30002D4840682C4A128802EB420200EB8200C8
:102D4000007941EA002028494968274A128802EBA5
:102D5000420201EB8201C978084322490831086028
:102D6000214840682049098801EB410100EB8100BE
:102D7000807A01061C4840681B4A128802EB420216
:102D800000EB8200407A41EA004117484068164A49
:102D9000128802EB420200EB820000E01FE0007AA2
:102DA00041EA0020104949680F4A128802EB4202AA
:102DB00001EB8201C97908430A490C3108600948CE
:102DC000006840F001000749086007480088401C7F
:102DD000322190FBF1F201FB12000349088000BD93
:102DE00008640040806500401C00002007B500F02A
:102DF0005DFC312801D100200EBD0E4840680D4910
:102E0000498801EB410100EB8100009901600199C3
:102E100041600299816007484088401C322190FB44
:102E2000F1F201FB120003494880FFF733FF012054
:102E3000E2E700001C0000201FB500F097F8012118
:102E4000C802FEF797F86320ADF808000020ADF83F
:102E50000A0040F27D50ADF804000020ADF80600F5
:102E60008DF80C0001A91148FEF7ECFC00208DF84C
:102E700001008DF8020001208DF8030019208DF863
:102E800000006846FEF71CF801210848FEF72CFBFD
:102E9000012211460548FEF76EFC01210348FEF7AA
:102EA00032FB01210148FEF722FB1FBD002C01402F
:102EB00010B501202A4908702A48006850B92A48EC
:102EC00001F0B2FB0121032000F0A2FC002001F080
:102ED000B5FB3FE023480068202807D100210120EE
:102EE00000F096FC204801F047FB33E01D480068E5
:102EF0007E2807D10021022000F08AFC002001F08A
:102F00003BFB27E017480068DC2807D10121084671
:102F100000F07EFC002001F017FC1BE01148006867
:102F2000DC2817D900F032FCA0B900F01DFC002805
:102F300003DA00F019FC404201E000F015FC0A2819
:102F400008DA00F017FC28B9002005490870064887
:102F500001F06AFB03480068401C0249086010BD8C
:102F6000FC00002000010020F04902001FB50121F3
:102F70000420FDF7FFFF0320ADF80C0004208DF8BE
:102F80000F0003208DF80E0003A91E48FDF7F5FE83
:102F900001210846FDF7CEFF0020ADF800004FF6F6
:102FA000FF70ADF804000020ADF80600ADF8020097
:102FB00069464FF08040FEF745FC00231A46032186
:102FC0004FF08040FEF7A2FB04230122002190076E
:102FD000FEF748F90423012200219007FEF782F949
:102FE0000020094908600949086009490860002172
:102FF0004FF08040FEF723FC01218807FEF777FAA7
:103000001FBD000000080140F0000020EC0000207F
:10301000E80000200948006838B9094800683328EA
:1030200001D9012070470020FCE70548006880288E
:1030300001D90120F6E70020F4E70000E8000020B5
:10304000F400002010B54FF08040FEF780FB04B282
:1030500000214FF08040FEF7F2FB13480068201A71
:103060001249086010480460114800682044104963
:1030700008600D48006898B900F028FB002803DAC2
:1030800000F024FB404201E000F020FB43F67F61AA
:10309000884208D107480068401C0649086002E0E1
:1030A00000200449086010BDEC000020F000002062
:1030B000E8000020F40000200020034908600120FF
:1030C000024908707047000000010020FC00002049
:1030D0002DE9FF4F85B0064689469346129D534819
:1030E000007808B9012000E0002004460020504983
:1030F0000870B54202DDDDF84C8002E01398C0F1A3
:103100000008A81B4FF4007180FB011042464FEAF3
:10311000E873CDE9021008460399FDF725F8074644
:10312000E817AA1940EBE6704FF00003A2FB071C5A
:1031300000FB07C002FB03004FF40072CDE9001052
:1031400008460199FDF710F802220023CDE902019B
:10315000FDF70AF810EB090A72B6364800EB841046
:103160000661344800EB8410C0F81490314800EB3D
:103170008410C0F818B02F4901EB84110898C86179
:103180002C4800EB8410C0F800802A4800EB841023
:10319000C0F80480002D06DD0020264901EB8411D3
:1031A00081F83C000EE0002D06DA0120214901EBF8
:1031B000841181F83C0005E002201E4901EB8411D6
:1031C00081F83C001B4800EB84100762194800EBB3
:1031D00084104762174800EB84108762154800EBA3
:1031E00084108560134800EB8410C560114800EB23
:1031F0008410C0F834A00F4800EB8410C0F830A051
:103200000C4800EB8410C0F838A00020094901EBFD
:103210008411C8620548047062B6064803490978FB
:1032200000EB811009B0BDE8F08F0000E500002040
:10323000D4000020D40800202DE9FC4104460D46AE
:103240000E4E0F4FCDE900453F7806EB8716F36928
:103250000A4E0B4F3F7806EB8716B269074E084FB0
:103260003F7806EB87167169044E054F3F7806EBF1
:1032700087163069FFF72CFFBDE8FC81D4080020D9
:10328000E4000020FEB504460D461646124FDFF856
:103290004CC08DE870009CF800C007EB8C17FB69F0
:1032A0000D4FDFF838C09CF800C007EB8C17BA69E7
:1032B000094FDFF828C09CF800C007EB8C1779692C
:1032C000054FDFF818C09CF800C007EB8C17386971
:1032D00000F006F8FEBD0000D4080020E400002045
:1032E0002DE9FF4F93B007468946DDF88880219885
:1032F000002802DA2198404200E02198219020988D
:10330000A0EB090607FB07F0C117CDE910014FEA52
:1033100048000F90002F02DA4FF0FF3000E001204C
:10332000002E02DA4FF0FF3100E0012188427CD10B
:103330000F98002E01DA714200E0314680FB013027
:10334000DDE910219A1A88416FDA0120D14A107004
:10335000D14A20981060D14A21981060D048C0F816
:103360000080D048007808B9012000E00020014624
:1033700072B60020CC4A02EB81121062CA4A02EBFC
:1033800081125062002F01DA784200E0384690FB4B
:10339000F8F0C54A02EB81129062002E0BDDC248A4
:1033A00000EB8110C0F800800020BF4A02EB8112C0
:1033B00082F83C0019E0002E0CDAC8F10000BA4A8D
:1033C00002EB811210600120B74A02EB811282F8F1
:1033D0003C000AE0B44800EB8110C0F800800220F5
:1033E000B14A02EB811282F83C00AF4800EB811039
:1033F0000068AD4A02EB81125060AB4800EB8110CF
:10340000C0F83490A84800EB8110C0F83090A6486E
:1034100000EB8110806A784309EB9020A24A02EB0E
:10342000811290630020A04A00E016E002EB8112B6
:10343000D0629D4800EB8110876000209A4A02EB21
:103440008112D0609748017062B69748954A127809
:1034500000EB821017B0BDE8F08F0F98002E01DA54
:10346000714200E0314680FB01B1DDE9100C1BEB3D
:10347000000241EB0C011046FDF77CFE4FF4B561F4
:10348000B0FBF1F00E90002E09DD0E9921988842D4
:1034900001DD0E9D00E0219DCDF834800BE00E99FA
:1034A0002198884202DD0E98454201E0219845426C
:1034B000C8F100000D90E81B41020D9891FBF0FA55
:1034C000E819C2170021A0FB0A3C02FB0AC200FB5C
:1034D00001200222CDE900300B46DDE90001FCF7B6
:1034E00043FECDE9080185FB05014FF4007200237E
:1034F000A0FB02CB01FB02B100FB0310CDE900C031
:103500000F9AD31760460199FCF72EFE002D02DAC0
:103510004FF0FF3200E00122D3178C46A0FB021BC4
:103520000CFB02B200FB0320CDE906104FF4007043
:1035300086FB0030DDE908219B1A60EB0102DDE922
:103540000610591A62EB0000CDE904104FF4007226
:103550000023DDE90801FCF707FE10EB09010391E8
:103560004FF400724FF00003DDE90401FCF7FCFDAD
:103570000399401802902A464FEAE573DDE90401F9
:10358000FCF7F2FD10EB0A000C90002D01DA684206
:1035900000E028464102B8F1000F02DAC8F100004D
:1035A00000E0404691FBF0F10C9808440B903D4838
:1035B000007808B9012000E00020044672B63A48BD
:1035C00000EB84100761384800EB8410C0F81490B9
:1035D000354901EB841115988861334901EB841159
:1035E0001698C861304800EB841085602E4901EBC5
:1035F00084110D9808602C4901EB84110D984860E6
:10360000294800EB8410C0F820A0274901EB841161
:103610000C984862244901EB84110B988862224976
:1036200001EB8411039808631F4901EB8411029890
:1036300048631D4901EB84112098886300201A49D2
:1036400001EB8411C860184901EB8411C86211496B
:103650000870002E05DD144901EB841181F83C004F
:103660000EE0002E06DA01200F4901EB841181F8EB
:103670003C0005E002200C4901EB841181F83C007C
:103680000848047062B608480649097800EB8110C2
:10369000E0E60000D4000020D8000020DC0000207C
:1036A000E0000020E5000020D40800200648408803
:1036B00005490988401A3230322190FBF1F201FBB2
:1036C000120080B2704700001C0000200148006812
:1036D00070470000CC0000200146012901D10020E4
:1036E000704709B90020FBE70020F9E703480449C7
:1036F000097800EB811090F83C007047D408002056
:10370000E400002003480449097800EB8110406977
:1037100070470000D4080020E4000020034804495A
:10372000097800EB8110006970470000D408002080
:10373000E400002001460A4800EBC1004088084A26
:1037400032F83120801A074A52F821201044054AE5
:1037500052F82120B0FBF2F302FB130080B2704755
:1037600058000020700000200148006870470000E9
:10377000E80000200148006840027047EC0000208B
:103780000148007870470000FC0000200848094903
:10379000097800EB8110C06A0549064A127801EBEE
:1037A0008211896A884201D2012070470020FCE71B
:1037B000D4080020E400002070B5044604F00100A5
:1037C00068B104211048FDF763FB08B9012000E04F
:1037D000002005462A4604210B48FDF766FB04F04D
:1037E000020078B14FF480710848FDF751FB08B929
:1037F000012000E0002005462A464FF4807103486E
:10380000FDF753FB70BD000000080140000C0140B3
:1038100070B504460D4604F0010020B12A4604218B
:103820000648FDF742FB04F0020028B12A464FF497
:1038300080710348FDF739FB70BD000000080140AE
:10384000000C014008B501210420FDF793FB012184
:103850000820FDF78FFB03208DF8020010208DF863
:1038600003000420ADF8000069460B48FDF785FA17
:103870004FF48070ADF8000069460848FDF77DFA06
:10388000002204210448FDF710FB00224FF4807150
:103890000248FDF70AFB08BD00080140000C01408A
:1038A00008B501210420FDF765FB01210420FDF787
:1038B00061FB03208DF8020004208DF80300202016
:1038C000ADF8000069460548FDF757FA1020ADF83D
:1038D000000069460148FDF750FA08BD00080140A4
:1038E00038B505460020FFF7F7FE8DF800000120EF
:1038F000FFF7F2FE8DF80100002446E01DF80400F9
:1039000070B32348005DA8B9FFF72EFF214941F8A5
:103910002400084650F82410204601F029FA012D11
:1039200005D11C4951F8240000F00EFF02E00020F0
:1039300000F084FE012D22D14CB9FFF7D7FE0128FB
:103940001DD1144951F8240000F0FEFE17E0FFF7E6
:10395000CDFEA0B90F4951F8240000F0F5FE0EE0AD
:103960000B48005D01280AD1FFF7FEFE094941F826
:103970002400084650F82410204601F0F9F91DF8FB
:10398000040003490855601CC4B2012CB6DD38BDE3
:103990000C0100201001002000F0F4FEFFF7B0F849
:1039A000FFF760F9FFF718F900F0A2F9FFF7DEFA68
:1039B0004FF4E131002000F047FFFFF771FFFFF700
:1039C00041FFFEF705FE00E000BF3348007801210B
:1039D00001EB4000314909688842F5D8FFF72CFA1D
:1039E000FFF76AFB57E02D4804682D4800688442C1
:1039F00050D02C480068201A04281AD3FFF70AFB7D
:103A0000054635B12848007818B92A2027490860AA
:103A100007E02548007820B11DB94FF48070234994
:103A200008602846FFF71CF81F4805701D48046011
:103A300000BF1F480068201A202808D300F0D0FEDD
:103A4000FFF79EFE08B1FFF733FA19480460FFF74D
:103A500097FE58B917480068201A14490968884227
:103A600004D30220FFF7A8FE124804601248006841
:103A700028B111480068201AB0F5007F04D9002150
:103A80000120FFF7C5FE03E001210846FFF7C0FE55
:103A90000348046000BFA6E72C00002014000020AB
:103AA000000000200400002010000020180000206A
:103AB000080000200C0000202800002030B503463C
:103AC00014460819C2B20B480078824201DD00207A
:103AD00030BD07E0501A185C074DAD5CA84201D01C
:103AE0000020F5E71046551EEAB28842F2DC0120BC
:103AF000EEE70000080100205409002070B50446DC
:103B0000FFF73EFE00B170BD6C4800686C4908606C
:103B1000E07ABC2878D006DC45283AD0492855D030
:103B2000AA2824D106E0CC287ED0DD287DD0EE283E
:103B3000F7D190E0A07A06282AD1217B607B41EA68
:103B40000021A07B41EA0041E07B41EA0065267C40
:103B50005C480078AA280BD15B48007840B95B48E4
:103B60000068A84204D15A480078B04200D1A2E0CF
:103B7000002055490870AA2052490870012E03D12F
:103B8000284600F0F9FC02E0284600F057FD00BF8F
:103B900091E0A07A052818D1217B607B41EA0021C1
:103BA000A07B41EA0041E07B41EA0065494800789A
:103BB00020B949480068A84200D17CE0002045496E
:103BC0000870284600F026FD00BF74E0A07A0528A2
:103BD00019D1217B607B41EA0021A07B41EA0041B1
:103BE000E07B41EA00653D48007828B93C48006820
:103BF000A84201D15FE007E000203849087028465C
:103C000000F012FD00BF56E0A07A052822D1217BEA
:103C1000607B41EA0021A07B41EA0041E07B41EA70
:103C200000652848007801E037E028E0BC2807D18B
:103C30002C48007820B92C480068854200D13AE031
:103C4000002028490870BC201E490870284600F052
:103C50007BFD00BF2FE0A07A01280FD11948007822
:103C6000EE2803D12148007800B924E000201F4944
:103C70000870EE201349087000F080FD1BE0A07A68
:103C8000022809D1207B012800D100E00020054650
:103C9000284600F097FC00BF0DE0A07A022809D169
:103CA000207B012800D100E000200546284600F0D6
:103CB0003DFD00BF00BF00BF00BF24E7140000208F
:103CC000280000202D0000202E0000208800002069
:103CD000900000202F0000208000002030000020F5
:103CE00084000020310000208C00002032000020E1
:103CF00008B501210820FDF73DF90120ADF80000CD
:103D000018208DF8030003208DF8020069460E4844
:103D1000FDF733F801210820FDF72CF90220ADF85A
:103D2000000003208DF8020010208DF80300694682
:103D30000548FDF722F801210220FDF7FBF80348B2
:103D4000007800F095FB08BD000C0140D000002079
:103D500070B5FA480078FA490978884206D0F748E1
:103D60000078F74908700020F6490870F648F449D1
:103D7000097800EB8110C16AF348F14A127800EB30
:103D80008210006A814270D2EF49ED4A127801EB4D
:103D900082110B69EC4CEA4D2D7804EB851404F18B
:103DA0001002E94CE64D2D7804EB85142468E64DAD
:103DB000E34E367805EB8615AD696119CC1701EB3A
:103DC000D454156805EB64241460DF4ADC4C247875
:103DD00002EB84121268DC4CD94D2D7804EB85146B
:103DE000A4691119CA1701EBD2525212A1EB422257
:103DF000D54CD34D2D7804EB8514A261D249D04A1D
:103E0000127801EB821109691944CF4ACC4C24780D
:103E100002EB8412D2698818CB4CC94D2D7804EB83
:103E2000851404F114020146C41700EB945415687C
:103E300005EBA4241460C21700EB92529212A0EB7F
:103E40008224C14ABE4D2D7802EB8512D461BE4951
:103E5000BB4A127801EB82110968BB4AB84C24783E
:103E600002EB8412516036E0FFE7B748B4490978A5
:103E700000EB8110C16AB448B14A127800EB82109D
:103E8000006A814227D1B048AD49097800EB811022
:103E90008168AD48AA4A127800EB821001610020C7
:103EA000A949A74A127801EB82118861A648A44962
:103EB000097800EB8110006BA349A14A127801EB4D
:103EC000821148610020A0499D4A127801EB8211BD
:103ED000C86100F0A9FA9C489949097800EB811063
:103EE000C06A9949964A127801EB8211096A8842A0
:103EF0005CD395489249097800EB8110C16A9248D9
:103F00008F4A127800EB8210406A81424ED28E486E
:103F10008B49097800EB811081688B48884A1278B8
:103F200000EB8210016100208749854A127801EB7D
:103F300082118861844A824B1B7802EB831202F162
:103F40001401814A7E4B1B7802EB831213697E4A6F
:103F50007B4C247802EB8412D2699818C21700EBCC
:103F6000D2520B6803EB62220A607749744A1278D6
:103F700001EB82110969744A714B1B7802EB8312C1
:103F8000D2698818C11700EBD1514912A0EB412129
:103F90006D4A6B4B1B7802EB8312D16100206A499A
:103FA000674A127801EB8211486036E0664864493E
:103FB000097800EB8110C16A6348614A127800EB0E
:103FC0008210406A814228D15F485D49097800EB40
:103FD000811080685C495A4A127801EB82110861AD
:103FE00000215948564A127800EB821081615648E8
:103FF0005349097800EB8110416B5348504A1278BD
:1040000000EB8210416100204F494D4A127801EBCC
:104010008211C861012000F007FA4B48484909782D
:1040200000EB8110C06A4849454A127801EB8211C1
:10403000496A88427DD944484149097800EB81109A
:10404000C06A41493E4A127801EB8211896A88426E
:104050007CD23D493A4A127801EB82110B693A4C05
:10406000374D2D7804EB851404F11002364C344D95
:104070002D7804EB851424686442334D304E367835
:1040800005EB8615AD696119CC1701EBD4541568A1
:1040900005EB642414602C4A294C247802EB84122A
:1040A00012685242284C264D2D7804EB8514A469E1
:1040B0001119CA1701EBD2525212A1EB4224224A23
:1040C0001F4D2D7802EB851294611F491C4A12780E
:1040D00001EB82110969CA181B49194C247801EBBC
:1040E0008411C9695018184C154D2D7804EB8514AE
:1040F00004F114020146C41700EB9454156805EB53
:10410000A4241460C21700EB92529212A0EB8222F8
:104110000D4C0B4D2D7804EB8514E2610A49084AD9
:10412000127801EB821109684942074A044C24784D
:1041300000E00BE002EB841251606AE0E500002031
:10414000E4000020E6000020D40800206D486E49FD
:10415000097800EB8110C06A6A496B4A127801EB5A
:104160008211896A884254D166486749097800EB10
:104170008110816B6348644A127800EB82104161C0
:1041800000206049604A127801EB8211C8615D48E5
:104190005D49097800EB8110C0685A495A4A127883
:1041A00001EB8211086100215648574A127800EB52
:1041B0008210816100205349534A127801EB821129
:1041C000486050485049097800EB8110C06838B900
:1041D00002214C484C4A127800EB821080F83C10C7
:1041E0004A48007840B14A4802684A4801684A484B
:1041F0000068FFF747F809E042484349097800EBB7
:104200008110C06810B9012044490870022000F0F4
:104210000BF93C483C49097800EB8110C06A3949E8
:10422000394A127801EB8211896A88425AD335489B
:104230003549097800EB8110C0683249324A12785A
:1042400001EB8211086100202E492F4A127801EB00
:10425000821188612B4A2C4B1B7802EB831202F1EE
:104260001401284A284B1B7802EB83121369254A54
:10427000254C247802EB8412D2699818C21700EBFF
:10428000D2520B6803EB62220A601E491E4A127862
:1042900001EB821109691B4A1B4B1B7802EB83124D
:1042A000D2698818C11700EBD1514912A0EB412106
:1042B000144A154B1B7802EB8312D161002111487F
:1042C000114A127800EB821041600E480E490978BD
:1042D00000EB8110806A401C0A490B4A127801EBFE
:1042E0008211C8620749084A127801EB821101F174
:1042F0002C00C96A491C016002480349097800EB97
:10430000811070BDD4080020E4000020D4000020FB
:10431000E0000020DC000020D8000020E6000020A3
:1043200072B62D49097809B9012100E0002108463B
:1043300000212A4A02EB80129162284A02EB801285
:104340005162264A02EB801211620121234A02EBDC
:104350008012D16222490968204A02EB8012516121
:104360001E4901EB801149691C4A02EB80129163DE
:104370001A4A02EB80125163184A02EB8012116351
:104380000021164A02EB8012D161144A02EB80121E
:104390009161124A02EB80121161104A02EB801205
:1043A000D1600E4A02EB8012916002210B4A02EBAF
:1043B000801282F83C100B49084A02EB80125160CF
:1043C000064A02EB801211600121074A1170074969
:1043D000087062B670470000E5000020D408002095
:1043E000E8000020E0930400E6000020E400002044
:1043F0000021084A11605160074A11605160002095
:10440000064A10605060064A11605160054A11600A
:104410005160704798000020A0000020A8000020F4
:10442000B0000020B80000203EB504460F480078D8
:10443000E030ADF8000001208DF8020024B1012C1D
:1044400006D0022C0CD107E040208DF8030007E0D5
:1044500041208DF8030003E042208DF8030000BFE7
:1044600000BF9DE80700FEF7C1FC3EBD2C00002008
:1044700010B588B004462148FDF754F843F67F6034
:10448000ADF8180014B9ADF8180003E041F63F701C
:10449000ADF818000020ADF81A00ADF81400ADF822
:1044A0001A00ADF8160005A91448FDF7CBF96020F5
:1044B000ADF804000020ADF80C000120ADF80600B6
:1044C0000020ADF80A0001A90C48FDF75DF90821AC
:1044D0000A48FDF7A9F901210848FCF7F9FF012175
:1044E0000648FDF704F801210448FDF70CF80448DC
:1044F0000470002000F0BEF808B010BD00040040B9
:10450000D000002070B502460B4600201849087004
:10451000002400259A4203DB01200870002070BDB2
:104520001448805C2D2802D10125501CC2B21146CE
:1045300017E01048405C30280CDB0E48405C3928FE
:1045400008DC0C4E765C303EF0B204EB840600EBE7
:10455000460404E00120064E30700020DFE7481CCE
:10456000C1B29942E5DB0DB16042D8E72046D6E7FB
:10457000090100205409002010B504460E480460CB
:10458000012000F037F80D4800684042844203DA09
:104590000A480068404207E008480068844202DD9B
:1045A0000648006800E020460446054801682046A9
:1045B000FEF742FE10BD00008800002084000020AD
:1045C0008000002001490870704700009100002021
:1045D00010B50446012C04D102210548FCF763FC08
:1045E00004E01CB902210248FCF75BFC10BD00008E
:1045F000000C014010B5044605480078A04203D0E5
:10460000FFF7F6FEFFF78CFE0148047010BD0000B6
:1046100090000020002801DA414200E00146014AF2
:104620001160704780000020002801DA414200E05C
:104630000146014A116070478400002010B504460D
:104640000A4804600020FFF7D5FF14F57A5F01DC0B
:10465000074806E0B4F57A5F02DB43F67F6000E0CE
:1046600020460446204600F005F810BD88000020D2
:1046700081C1FFFF2DE9F0410446B4F57A5F02DB0A
:1046800043F67F6403E014F57A5F00DC234C002CD2
:1046900001DA604200E02046002804DA002C00DA4B
:1046A00000E000BF00240120FFF716F808B1002C3D
:1046B00005DC0020FFF710F810B1002C00DA002410
:1046C0003CB1002C01DC012100E000210846FFF78D
:1046D0007FFF134804601348007848B9002C01DAC2
:1046E000604200E0204681B20F48FDF7A6F813E0D3
:1046F000274604EBD7704010002805DA264604EB65
:10470000D6704010404203E0254605EBD5704010BE
:1047100081B20548FDF791F8BDE8F08181C1FFFF46
:10472000CC000020D00000200004004010B504465A
:1047300004480078A04204D02046FFF799FE0148C3
:10474000047010BD9200002010B5044600200749F7
:104750000860074804600120FFF74CFF0548026825
:10476000054801682046FEF78DFD10BD8800002039
:104770008C000020800000208400002010B5FFF78E
:10478000CFFD10BD1FB501210420FCF7D3FB4FF472
:104790007A70ADF804004720ADF8000069460F4874
:1047A000FDF750F801210D48FCF79EFE012211464D
:1047B0000A48FCF7E0FF01210848FCF798FE0020BA
:1047C0008DF80D0001208DF80E008DF80F001E20D1
:1047D0008DF80C0003A8FCF773FB1FBD0008004018
:1047E000FEB50D480078A8B9FEF770FF0446FEF745
:1047F00095FF0546FEF786FF0646FEF7BBFF074618
:104800003B460648CDE900650294026804A10020F9
:1048100000F0B2F8FEBD0000F8000020E800002023
:1048200025640925640925640925640925640D00AA
:104830000020014908707047F8000020012001495C
:1048400008707047F800002030B587B004460D4668
:104850003D4951F824103D4A52F82420114341F0BB
:1048600001000121FCF786FB34B9394951F82400D5
:104870000121FCF77FFB05E0354951F824000121B7
:10488000FCF758FB18208DF81B00324830F8140054
:10489000ADF8180003208DF81A002F4951F82400B4
:1048A00006A9FCF76AFA04208DF81B002B4830F8A3
:1048B0001400ADF818002A4951F8240006A9FCF7A5
:1048C0005CFA02950020ADF80C00ADF80E00ADF8D2
:1048D0001000ADF814000C20ADF81200214951F879
:1048E0002400012240F22661FDF7F8F81D4951F835
:1048F0002400012240F22551FDF7F0F81A4810F883
:1049000014008DF8040004208DF8050003208DF8B4
:10491000060001208DF8070001A8FCF7D1FA114923
:1049200051F824000121FDF76BF90E4951F82400DC
:1049300002A9FDF7F9F80B4951F824000121FDF710
:104940008AF807B030BD0000C84D0008D44D0008FB
:10495000BC4D0008E04D000840000020E64D000876
:104960004C00002034000020EC4D0008014A42F8C1
:1049700020107047C80800200FB430B5ADF5017D98
:10498000054686A880906846809A8599FDF786F945
:10499000002080906C4604E014F8011B284600F0CB
:1049A00039F820780028F7D10DF5017D30BC5DF88D
:1049B00014FB000010B50446134951F8240080216F
:1049C000FDF755F801281DD12046FEF7B3FEC8B10A
:1049D0000E4800EBC40040680C4931F83410405CCC
:1049E000094951F824108880084830F83400401CE8
:1049F000074951F82410B0FBF1F201FB1200034902
:104A000021F8340010BD00003400002058000020C0
:104A10007000002070B504460D462046FEF78AFE61
:104A2000114951F82410884200D170BD0F4800EBA5
:104A3000C40040680D4901EBC401498845540B4846
:104A400000EBC4004088401C074951F82410B0FB1B
:104A5000F1F201FB1200054901EBC4014880204638
:104A6000FFF7A8FF00BFE0E770000020580000201B
:104A70002DE9F04F8BB0FEF77DFEC7170646FEF717
:104A800041FEB3490968401AC117B24A106051602B
:104A9000FEF744FEC2170146891B62EB0700AE4ACF
:104AA00011605060104602684068AC490B68496864
:104AB000D21A60EB0100AA490A604860A648016862
:104AC0004068A64A11605060A648036841686322A6
:104AD0004FF0000CA3FB020A01FB02A103FB0C1127
:104AE00064226346CDE90201FBF73EFB994A136855
:104AF0005268C01851419B4A1060516010460368CB
:104B000042684FF480510020C91A904106DA4FF4F0
:104B100080510020934A116050600CE09148026877
:104B20004068914BD21A70F1FF3004DA194608132D
:104B30008C4A1160506000BF00BF00BF00BFFEF78D
:104B4000D5FD80B94BF24B210020CDE9081040F291
:104B5000E92881464FF493700021CDE90601002039
:104B60000490059025E0FEF7C1FD012810D14BF21D
:104B70004B210020CDE9081040F2E92881464FF48E
:104B800093700021CDE9060100200490059010E00B
:104B90004BF24B200021CDE9080140F2E9284FF00B
:104BA00000094FF493710020CDE906100021049113
:104BB0000591684BDDE90810D3F800C05B68A1FBE4
:104BC0000C2A00FB0CA001FB0301664B1868D3F80C
:104BD00004C0A8FB003A09FB00A008FB0C00D31896
:104BE0004141DFF874C1DDE90620DCF800A0DCF803
:104BF00004B0A2FB0ACE00FB0AE002FB0B0013EBA1
:104C00000C034141DFF858C1DDE90420DCF800A0C5
:104C1000DCF804B0A2FB0ACE00FB0AE002FB0B00AA
:104C200013EB0C024141CDE902214FF480620023D5
:104C30000298FBF799FA04460D46002384EA030024
:104C400085EA030108436FD000210846711A77EB0B
:104C5000000004DA0021704261EB070101E03046F8
:104C600039464FF480530022181A8A415CDA002139
:104C70000846711A77EB000002DA4FF0FF3200E0CD
:104C8000012200210846611A75EB000002DA4FF09C
:104C9000FF3000E00120824246D000210846711A10
:104CA00077EB000004DA0021704261EB070101E0BC
:104CB000304639464FF0010C00230246A2FB0C0A95
:104CC00001FB0CA102FB03114FF40072CDE90001BE
:104CD000FBF74AFACDE9020100210846091BA84169
:104CE0000FDADDE90223A01A65EB030100231A465F
:104CF0001B1A8A4102DA04460D4601E00124002510
:104D000011E0DDE90232E01845EB020100231A460A
:104D1000C31A71EB020202DA04460D4602E04FF0BC
:104D2000FF34254600BF00BF43F67F610020091B0A
:104D3000A84102DA43F67F6405E00C49611A75F177
:104D4000FF3000DA094C20460BB0BDE8F08F0000C0
:104D5000E800002098000020A0000020B8000020FB
:104D6000B0000020A800002000F0FFFF81C1FFFF7D
:104D70003EB505460C4610480078E030ADF800001E
:104D800005208DF802001DB930208DF8030002E0E7
:104D900031208DF80300E1B28DF80410210A8DF85E
:104DA0000510210C8DF80610210E8DF807109DE8D6
:104DB0000700FEF71BF83EBD2C000020004000005D
:104DC00000000200000004000400000004000000D5
:104DD00008000000040000000400000008000000BB
:104DE000000204000004000408000008250026005A
:104DF00027000000536570203235203230313720D3
:104E000031343A30393A35390D0000002C4E000863
:104E1000000000202C010000CC070008884E00088C
:104E20002C0100205C0C0000D01C00081AFF0101BE
:104E3000156201132C0182202C03AA0101211438D0
:104E40000140124412401A48041A080C29045A0C52
:104E500008690C314BF4033C4BF407082AFE082286
:104E600004320A72C814E09304047DF0490213F47A
:104E70004D4208DA02872D010203040400090006EE
:084E80000708090204060800FE
:0400000508000131BD
:00000001FF
